{
  "_format": "hh-sol-artifact-1",
  "contractName": "TokenRegistry",
  "sourceName": "contracts/TokenRegistry.sol",
  "abi": [
    {
      "inputs": [
        {
          "internalType": "address",
          "name": "_feeToken",
          "type": "address"
        }
      ],
      "stateMutability": "nonpayable",
      "type": "constructor"
    },
    {
      "inputs": [
        {
          "internalType": "address",
          "name": "owner",
          "type": "address"
        }
      ],
      "name": "OwnableInvalidOwner",
      "type": "error"
    },
    {
      "inputs": [
        {
          "internalType": "address",
          "name": "account",
          "type": "address"
        }
      ],
      "name": "OwnableUnauthorizedAccount",
      "type": "error"
    },
    {
      "anonymous": false,
      "inputs": [
        {
          "indexed": false,
          "internalType": "address",
          "name": "newToken",
          "type": "address"
        }
      ],
      "name": "FeeTokenUpdated",
      "type": "event"
    },
    {
      "anonymous": false,
      "inputs": [
        {
          "indexed": false,
          "internalType": "uint256",
          "name": "newFee",
          "type": "uint256"
        }
      ],
      "name": "MinFeeUpdated",
      "type": "event"
    },
    {
      "anonymous": false,
      "inputs": [
        {
          "indexed": true,
          "internalType": "address",
          "name": "previousOwner",
          "type": "address"
        },
        {
          "indexed": true,
          "internalType": "address",
          "name": "newOwner",
          "type": "address"
        }
      ],
      "name": "OwnershipTransferred",
      "type": "event"
    },
    {
      "anonymous": false,
      "inputs": [
        {
          "indexed": true,
          "internalType": "address",
          "name": "tokenAddress",
          "type": "address"
        },
        {
          "indexed": false,
          "internalType": "string",
          "name": "name",
          "type": "string"
        },
        {
          "indexed": false,
          "internalType": "bytes32",
          "name": "symbol",
          "type": "bytes32"
        },
        {
          "indexed": false,
          "internalType": "uint256",
          "name": "feePaid",
          "type": "uint256"
        }
      ],
      "name": "TokenRegistered",
      "type": "event"
    },
    {
      "inputs": [],
      "name": "feeToken",
      "outputs": [
        {
          "internalType": "contract IERC20",
          "name": "",
          "type": "address"
        }
      ],
      "stateMutability": "view",
      "type": "function"
    },
    {
      "inputs": [],
      "name": "getAllTokens",
      "outputs": [
        {
          "internalType": "address[]",
          "name": "",
          "type": "address[]"
        }
      ],
      "stateMutability": "view",
      "type": "function"
    },
    {
      "inputs": [
        {
          "internalType": "address",
          "name": "tokenAddress",
          "type": "address"
        }
      ],
      "name": "getTokenInfo",
      "outputs": [
        {
          "internalType": "string",
          "name": "name",
          "type": "string"
        },
        {
          "internalType": "bytes32",
          "name": "symbol",
          "type": "bytes32"
        },
        {
          "internalType": "bytes32",
          "name": "bytecodeHash",
          "type": "bytes32"
        },
        {
          "internalType": "bool",
          "name": "registered",
          "type": "bool"
        }
      ],
      "stateMutability": "view",
      "type": "function"
    },
    {
      "inputs": [],
      "name": "minFee",
      "outputs": [
        {
          "internalType": "uint256",
          "name": "",
          "type": "uint256"
        }
      ],
      "stateMutability": "view",
      "type": "function"
    },
    {
      "inputs": [],
      "name": "owner",
      "outputs": [
        {
          "internalType": "address",
          "name": "",
          "type": "address"
        }
      ],
      "stateMutability": "view",
      "type": "function"
    },
    {
      "inputs": [
        {
          "internalType": "string",
          "name": "name",
          "type": "string"
        },
        {
          "internalType": "bytes32",
          "name": "symbol",
          "type": "bytes32"
        },
        {
          "internalType": "bytes32",
          "name": "bytecodeHash",
          "type": "bytes32"
        }
      ],
      "name": "registerToken",
      "outputs": [],
      "stateMutability": "nonpayable",
      "type": "function"
    },
    {
      "inputs": [],
      "name": "renounceOwnership",
      "outputs": [],
      "stateMutability": "nonpayable",
      "type": "function"
    },
    {
      "inputs": [
        {
          "internalType": "address",
          "name": "newOwner",
          "type": "address"
        }
      ],
      "name": "transferOwnership",
      "outputs": [],
      "stateMutability": "nonpayable",
      "type": "function"
    },
    {
      "inputs": [
        {
          "internalType": "address",
          "name": "newToken",
          "type": "address"
        }
      ],
      "name": "updateFeeToken",
      "outputs": [],
      "stateMutability": "nonpayable",
      "type": "function"
    },
    {
      "inputs": [
        {
          "internalType": "uint256",
          "name": "newFee",
          "type": "uint256"
        }
      ],
      "name": "updateMinFee",
      "outputs": [],
      "stateMutability": "nonpayable",
      "type": "function"
    }
  ],
  "bytecode": "0x608060405268056bc75e2d631000006001553480156200001e57600080fd5b50604051620016ff380380620016ff833981810160405281019062000044919062000242565b33600073ffffffffffffffffffffffffffffffffffffffff168173ffffffffffffffffffffffffffffffffffffffff1603620000ba5760006040517f1e4fbdf7000000000000000000000000000000000000000000000000000000008152600401620000b1919062000285565b60405180910390fd5b620000cb816200011460201b60201c565b5080600260006101000a81548173ffffffffffffffffffffffffffffffffffffffff021916908373ffffffffffffffffffffffffffffffffffffffff16021790555050620002a2565b60008060009054906101000a900473ffffffffffffffffffffffffffffffffffffffff169050816000806101000a81548173ffffffffffffffffffffffffffffffffffffffff021916908373ffffffffffffffffffffffffffffffffffffffff1602179055508173ffffffffffffffffffffffffffffffffffffffff168173ffffffffffffffffffffffffffffffffffffffff167f8be0079c531659141344cd1fd0a4f28419497f9722a3daafe3b4186f6b6457e060405160405180910390a35050565b600080fd5b600073ffffffffffffffffffffffffffffffffffffffff82169050919050565b60006200020a82620001dd565b9050919050565b6200021c81620001fd565b81146200022857600080fd5b50565b6000815190506200023c8162000211565b92915050565b6000602082840312156200025b576200025a620001d8565b5b60006200026b848285016200022b565b91505092915050565b6200027f81620001fd565b82525050565b60006020820190506200029c600083018462000274565b92915050565b61144d80620002b26000396000f3fe608060405234801561001057600080fd5b506004361061009e5760003560e01c8063715018a611610066578063715018a61461014c5780638da5cb5b14610156578063c89245d514610174578063ec4a8b1214610190578063f2fde38b146101ac5761009e565b80631f69565f146100a357806324ec7590146100d65780632a5c792a146100f45780634867ef4f14610112578063647846a51461012e575b600080fd5b6100bd60048036038101906100b89190610a1d565b6101c8565b6040516100cd9493929190610b0e565b60405180910390f35b6100de610301565b6040516100eb9190610b73565b60405180910390f35b6100fc610307565b6040516101099190610c4c565b60405180910390f35b61012c60048036038101906101279190610c9a565b610395565b005b6101366103de565b6040516101439190610d26565b60405180910390f35b610154610404565b005b61015e610418565b60405161016b9190610d50565b60405180910390f35b61018e60048036038101906101899190610a1d565b610441565b005b6101aa60048036038101906101a59190610ecc565b6104c4565b005b6101c660048036038101906101c19190610a1d565b6107d2565b005b6060600080600080600360008773ffffffffffffffffffffffffffffffffffffffff1673ffffffffffffffffffffffffffffffffffffffff16815260200190815260200160002060405180608001604052908160008201805461022a90610f6a565b80601f016020809104026020016040519081016040528092919081815260200182805461025690610f6a565b80156102a35780601f10610278576101008083540402835291602001916102a3565b820191906000526020600020905b81548152906001019060200180831161028657829003601f168201915b5050505050815260200160018201548152602001600282015481526020016003820160009054906101000a900460ff161515151581525050905080600001518160200151826040015183606001519450945094509450509193509193565b60015481565b6060600480548060200260200160405190810160405280929190818152602001828054801561038b57602002820191906000526020600020905b8160009054906101000a900473ffffffffffffffffffffffffffffffffffffffff1673ffffffffffffffffffffffffffffffffffffffff1681526020019060010190808311610341575b5050505050905090565b61039d610858565b806001819055507faf0b4cfce1d4ccd287e50e3f62fa38f40e5b62dece28eac7f48375a6c70a5003816040516103d39190610b73565b60405180910390a150565b600260009054906101000a900473ffffffffffffffffffffffffffffffffffffffff1681565b61040c610858565b61041660006108df565b565b60008060009054906101000a900473ffffffffffffffffffffffffffffffffffffffff16905090565b610449610858565b80600260006101000a81548173ffffffffffffffffffffffffffffffffffffffff021916908373ffffffffffffffffffffffffffffffffffffffff1602179055507fa0ca04e9956a42929fa24e6299bb6622c8703ac575c61b33e01fb170100ee6dc816040516104b99190610d50565b60405180910390a150565b6000816040516020016104d79190610fbc565b6040516020818303038152906040528051906020012060001c9050600360008273ffffffffffffffffffffffffffffffffffffffff1673ffffffffffffffffffffffffffffffffffffffff16815260200190815260200160002060030160009054906101000a900460ff1615610582576040517f08c379a000000000000000000000000000000000000000000000000000000000815260040161057990611023565b60405180910390fd5b600260009054906101000a900473ffffffffffffffffffffffffffffffffffffffff1673ffffffffffffffffffffffffffffffffffffffff166323b872dd33306001546040518463ffffffff1660e01b81526004016105e393929190611043565b6020604051808303816000875af1158015610602573d6000803e3d6000fd5b505050506040513d601f19601f8201168201806040525081019061062691906110a6565b610665576040517f08c379a000000000000000000000000000000000000000000000000000000000815260040161065c90611145565b60405180910390fd5b604051806080016040528085815260200184815260200183815260200160011515815250600360008373ffffffffffffffffffffffffffffffffffffffff1673ffffffffffffffffffffffffffffffffffffffff16815260200190815260200160002060008201518160000190816106dd9190611307565b50602082015181600101556040820151816002015560608201518160030160006101000a81548160ff0219169083151502179055509050506004819080600181540180825580915050600190039060005260206000200160009091909190916101000a81548173ffffffffffffffffffffffffffffffffffffffff021916908373ffffffffffffffffffffffffffffffffffffffff1602179055508073ffffffffffffffffffffffffffffffffffffffff167fb8175cab56970876e6d2f8e32c35b842b27bd70f788d8eba9d62e22119cb70aa85856001546040516107c4939291906113d9565b60405180910390a250505050565b6107da610858565b600073ffffffffffffffffffffffffffffffffffffffff168173ffffffffffffffffffffffffffffffffffffffff160361084c5760006040517f1e4fbdf70000000000000000000000000000000000000000000000000000000081526004016108439190610d50565b60405180910390fd5b610855816108df565b50565b6108606109a3565b73ffffffffffffffffffffffffffffffffffffffff1661087e610418565b73ffffffffffffffffffffffffffffffffffffffff16146108dd576108a16109a3565b6040517f118cdaa70000000000000000000000000000000000000000000000000000000081526004016108d49190610d50565b60405180910390fd5b565b60008060009054906101000a900473ffffffffffffffffffffffffffffffffffffffff169050816000806101000a81548173ffffffffffffffffffffffffffffffffffffffff021916908373ffffffffffffffffffffffffffffffffffffffff1602179055508173ffffffffffffffffffffffffffffffffffffffff168173ffffffffffffffffffffffffffffffffffffffff167f8be0079c531659141344cd1fd0a4f28419497f9722a3daafe3b4186f6b6457e060405160405180910390a35050565b600033905090565b6000604051905090565b600080fd5b600080fd5b600073ffffffffffffffffffffffffffffffffffffffff82169050919050565b60006109ea826109bf565b9050919050565b6109fa816109df565b8114610a0557600080fd5b50565b600081359050610a17816109f1565b92915050565b600060208284031215610a3357610a326109b5565b5b6000610a4184828501610a08565b91505092915050565b600081519050919050565b600082825260208201905092915050565b60005b83811015610a84578082015181840152602081019050610a69565b60008484015250505050565b6000601f19601f8301169050919050565b6000610aac82610a4a565b610ab68185610a55565b9350610ac6818560208601610a66565b610acf81610a90565b840191505092915050565b6000819050919050565b610aed81610ada565b82525050565b60008115159050919050565b610b0881610af3565b82525050565b60006080820190508181036000830152610b288187610aa1565b9050610b376020830186610ae4565b610b446040830185610ae4565b610b516060830184610aff565b95945050505050565b6000819050919050565b610b6d81610b5a565b82525050565b6000602082019050610b886000830184610b64565b92915050565b600081519050919050565b600082825260208201905092915050565b6000819050602082019050919050565b610bc3816109df565b82525050565b6000610bd58383610bba565b60208301905092915050565b6000602082019050919050565b6000610bf982610b8e565b610c038185610b99565b9350610c0e83610baa565b8060005b83811015610c3f578151610c268882610bc9565b9750610c3183610be1565b925050600181019050610c12565b5085935050505092915050565b60006020820190508181036000830152610c668184610bee565b905092915050565b610c7781610b5a565b8114610c8257600080fd5b50565b600081359050610c9481610c6e565b92915050565b600060208284031215610cb057610caf6109b5565b5b6000610cbe84828501610c85565b91505092915050565b6000819050919050565b6000610cec610ce7610ce2846109bf565b610cc7565b6109bf565b9050919050565b6000610cfe82610cd1565b9050919050565b6000610d1082610cf3565b9050919050565b610d2081610d05565b82525050565b6000602082019050610d3b6000830184610d17565b92915050565b610d4a816109df565b82525050565b6000602082019050610d656000830184610d41565b92915050565b600080fd5b600080fd5b7f4e487b7100000000000000000000000000000000000000000000000000000000600052604160045260246000fd5b610dad82610a90565b810181811067ffffffffffffffff82111715610dcc57610dcb610d75565b5b80604052505050565b6000610ddf6109ab565b9050610deb8282610da4565b919050565b600067ffffffffffffffff821115610e0b57610e0a610d75565b5b610e1482610a90565b9050602081019050919050565b82818337600083830152505050565b6000610e43610e3e84610df0565b610dd5565b905082815260208101848484011115610e5f57610e5e610d70565b5b610e6a848285610e21565b509392505050565b600082601f830112610e8757610e86610d6b565b5b8135610e97848260208601610e30565b91505092915050565b610ea981610ada565b8114610eb457600080fd5b50565b600081359050610ec681610ea0565b92915050565b600080600060608486031215610ee557610ee46109b5565b5b600084013567ffffffffffffffff811115610f0357610f026109ba565b5b610f0f86828701610e72565b9350506020610f2086828701610eb7565b9250506040610f3186828701610eb7565b9150509250925092565b7f4e487b7100000000000000000000000000000000000000000000000000000000600052602260045260246000fd5b60006002820490506001821680610f8257607f821691505b602082108103610f9557610f94610f3b565b5b50919050565b6000819050919050565b610fb6610fb182610ada565b610f9b565b82525050565b6000610fc88284610fa5565b60208201915081905092915050565b7f546f6b656e20616c726561647920726567697374657265640000000000000000600082015250565b600061100d601883610a55565b915061101882610fd7565b602082019050919050565b6000602082019050818103600083015261103c81611000565b9050919050565b60006060820190506110586000830186610d41565b6110656020830185610d41565b6110726040830184610b64565b949350505050565b61108381610af3565b811461108e57600080fd5b50565b6000815190506110a08161107a565b92915050565b6000602082840312156110bc576110bb6109b5565b5b60006110ca84828501611091565b91505092915050565b7f496e73756666696369656e742054504e20666565206f7220616c6c6f77616e6360008201527f6500000000000000000000000000000000000000000000000000000000000000602082015250565b600061112f602183610a55565b915061113a826110d3565b604082019050919050565b6000602082019050818103600083015261115e81611122565b9050919050565b60008190508160005260206000209050919050565b60006020601f8301049050919050565b600082821b905092915050565b6000600883026111c77fffffffffffffffffffffffffffffffffffffffffffffffffffffffffffffffff8261118a565b6111d1868361118a565b95508019841693508086168417925050509392505050565b60006112046111ff6111fa84610b5a565b610cc7565b610b5a565b9050919050565b6000819050919050565b61121e836111e9565b61123261122a8261120b565b848454611197565b825550505050565b600090565b61124761123a565b611252818484611215565b505050565b5b818110156112765761126b60008261123f565b600181019050611258565b5050565b601f8211156112bb5761128c81611165565b6112958461117a565b810160208510156112a4578190505b6112b86112b08561117a565b830182611257565b50505b505050565b600082821c905092915050565b60006112de600019846008026112c0565b1980831691505092915050565b60006112f783836112cd565b9150826002028217905092915050565b61131082610a4a565b67ffffffffffffffff81111561132957611328610d75565b5b6113338254610f6a565b61133e82828561127a565b600060209050601f831160018114611371576000841561135f578287015190505b61136985826112eb565b8655506113d1565b601f19841661137f86611165565b60005b828110156113a757848901518255600182019150602085019450602081019050611382565b868310156113c457848901516113c0601f8916826112cd565b8355505b6001600288020188555050505b505050505050565b600060608201905081810360008301526113f38186610aa1565b90506114026020830185610ae4565b61140f6040830184610b64565b94935050505056fea2646970667358221220c9ec9d446bce6e08ccce031aba3062f53b69a88a4de1b4d624997cf75cb49c8764736f6c63430008140033",
  "linkReferences": {},
  "deployedLinkReferences": {}
}