{
  "_format": "hh-sol-artifact-1",
  "contractName": "BadgeNFT",
  "sourceName": "contracts/BadgeNFT.sol",
  "abi": [
    {
      "inputs": [
        {
          "internalType": "string",
          "name": "name",
          "type": "string"
        },
        {
          "internalType": "string",
          "name": "symbol",
          "type": "string"
        }
      ],
      "stateMutability": "nonpayable",
      "type": "constructor"
    },
    {
      "inputs": [
        {
          "internalType": "address",
          "name": "sender",
          "type": "address"
        },
        {
          "internalType": "uint256",
          "name": "tokenId",
          "type": "uint256"
        },
        {
          "internalType": "address",
          "name": "owner",
          "type": "address"
        }
      ],
      "name": "ERC721IncorrectOwner",
      "type": "error"
    },
    {
      "inputs": [
        {
          "internalType": "address",
          "name": "operator",
          "type": "address"
        },
        {
          "internalType": "uint256",
          "name": "tokenId",
          "type": "uint256"
        }
      ],
      "name": "ERC721InsufficientApproval",
      "type": "error"
    },
    {
      "inputs": [
        {
          "internalType": "address",
          "name": "approver",
          "type": "address"
        }
      ],
      "name": "ERC721InvalidApprover",
      "type": "error"
    },
    {
      "inputs": [
        {
          "internalType": "address",
          "name": "operator",
          "type": "address"
        }
      ],
      "name": "ERC721InvalidOperator",
      "type": "error"
    },
    {
      "inputs": [
        {
          "internalType": "address",
          "name": "owner",
          "type": "address"
        }
      ],
      "name": "ERC721InvalidOwner",
      "type": "error"
    },
    {
      "inputs": [
        {
          "internalType": "address",
          "name": "receiver",
          "type": "address"
        }
      ],
      "name": "ERC721InvalidReceiver",
      "type": "error"
    },
    {
      "inputs": [
        {
          "internalType": "address",
          "name": "sender",
          "type": "address"
        }
      ],
      "name": "ERC721InvalidSender",
      "type": "error"
    },
    {
      "inputs": [
        {
          "internalType": "uint256",
          "name": "tokenId",
          "type": "uint256"
        }
      ],
      "name": "ERC721NonexistentToken",
      "type": "error"
    },
    {
      "inputs": [
        {
          "internalType": "address",
          "name": "owner",
          "type": "address"
        }
      ],
      "name": "OwnableInvalidOwner",
      "type": "error"
    },
    {
      "inputs": [
        {
          "internalType": "address",
          "name": "account",
          "type": "address"
        }
      ],
      "name": "OwnableUnauthorizedAccount",
      "type": "error"
    },
    {
      "anonymous": false,
      "inputs": [
        {
          "indexed": true,
          "internalType": "address",
          "name": "owner",
          "type": "address"
        },
        {
          "indexed": true,
          "internalType": "address",
          "name": "approved",
          "type": "address"
        },
        {
          "indexed": true,
          "internalType": "uint256",
          "name": "tokenId",
          "type": "uint256"
        }
      ],
      "name": "Approval",
      "type": "event"
    },
    {
      "anonymous": false,
      "inputs": [
        {
          "indexed": true,
          "internalType": "address",
          "name": "owner",
          "type": "address"
        },
        {
          "indexed": true,
          "internalType": "address",
          "name": "operator",
          "type": "address"
        },
        {
          "indexed": false,
          "internalType": "bool",
          "name": "approved",
          "type": "bool"
        }
      ],
      "name": "ApprovalForAll",
      "type": "event"
    },
    {
      "anonymous": false,
      "inputs": [
        {
          "indexed": true,
          "internalType": "address",
          "name": "recipient",
          "type": "address"
        },
        {
          "indexed": false,
          "internalType": "uint256",
          "name": "tokenId",
          "type": "uint256"
        },
        {
          "indexed": false,
          "internalType": "enum BadgeNFT.TrustLevel",
          "name": "level",
          "type": "uint8"
        }
      ],
      "name": "BadgeMinted",
      "type": "event"
    },
    {
      "anonymous": false,
      "inputs": [
        {
          "indexed": true,
          "internalType": "address",
          "name": "previousOwner",
          "type": "address"
        },
        {
          "indexed": true,
          "internalType": "address",
          "name": "newOwner",
          "type": "address"
        }
      ],
      "name": "OwnershipTransferred",
      "type": "event"
    },
    {
      "anonymous": false,
      "inputs": [
        {
          "indexed": true,
          "internalType": "address",
          "name": "from",
          "type": "address"
        },
        {
          "indexed": true,
          "internalType": "address",
          "name": "to",
          "type": "address"
        },
        {
          "indexed": true,
          "internalType": "uint256",
          "name": "tokenId",
          "type": "uint256"
        }
      ],
      "name": "Transfer",
      "type": "event"
    },
    {
      "inputs": [
        {
          "internalType": "address",
          "name": "to",
          "type": "address"
        },
        {
          "internalType": "uint256",
          "name": "tokenId",
          "type": "uint256"
        }
      ],
      "name": "approve",
      "outputs": [],
      "stateMutability": "nonpayable",
      "type": "function"
    },
    {
      "inputs": [
        {
          "internalType": "uint256",
          "name": "",
          "type": "uint256"
        }
      ],
      "name": "badgeLevels",
      "outputs": [
        {
          "internalType": "enum BadgeNFT.TrustLevel",
          "name": "",
          "type": "uint8"
        }
      ],
      "stateMutability": "view",
      "type": "function"
    },
    {
      "inputs": [
        {
          "internalType": "address",
          "name": "owner",
          "type": "address"
        }
      ],
      "name": "balanceOf",
      "outputs": [
        {
          "internalType": "uint256",
          "name": "",
          "type": "uint256"
        }
      ],
      "stateMutability": "view",
      "type": "function"
    },
    {
      "inputs": [
        {
          "internalType": "uint256",
          "name": "tokenId",
          "type": "uint256"
        }
      ],
      "name": "getApproved",
      "outputs": [
        {
          "internalType": "address",
          "name": "",
          "type": "address"
        }
      ],
      "stateMutability": "view",
      "type": "function"
    },
    {
      "inputs": [
        {
          "internalType": "uint8",
          "name": "trustLevel",
          "type": "uint8"
        }
      ],
      "name": "getBadgeColor",
      "outputs": [
        {
          "internalType": "string",
          "name": "",
          "type": "string"
        }
      ],
      "stateMutability": "pure",
      "type": "function"
    },
    {
      "inputs": [
        {
          "internalType": "uint256",
          "name": "tokenId",
          "type": "uint256"
        }
      ],
      "name": "getBadgeLevel",
      "outputs": [
        {
          "internalType": "uint8",
          "name": "",
          "type": "uint8"
        }
      ],
      "stateMutability": "view",
      "type": "function"
    },
    {
      "inputs": [
        {
          "internalType": "address",
          "name": "owner",
          "type": "address"
        },
        {
          "internalType": "address",
          "name": "operator",
          "type": "address"
        }
      ],
      "name": "isApprovedForAll",
      "outputs": [
        {
          "internalType": "bool",
          "name": "",
          "type": "bool"
        }
      ],
      "stateMutability": "view",
      "type": "function"
    },
    {
      "inputs": [
        {
          "internalType": "address",
          "name": "recipient",
          "type": "address"
        },
        {
          "internalType": "uint8",
          "name": "level",
          "type": "uint8"
        }
      ],
      "name": "mintBadge",
      "outputs": [
        {
          "internalType": "uint256",
          "name": "",
          "type": "uint256"
        }
      ],
      "stateMutability": "nonpayable",
      "type": "function"
    },
    {
      "inputs": [],
      "name": "name",
      "outputs": [
        {
          "internalType": "string",
          "name": "",
          "type": "string"
        }
      ],
      "stateMutability": "view",
      "type": "function"
    },
    {
      "inputs": [],
      "name": "owner",
      "outputs": [
        {
          "internalType": "address",
          "name": "",
          "type": "address"
        }
      ],
      "stateMutability": "view",
      "type": "function"
    },
    {
      "inputs": [
        {
          "internalType": "uint256",
          "name": "tokenId",
          "type": "uint256"
        }
      ],
      "name": "ownerOf",
      "outputs": [
        {
          "internalType": "address",
          "name": "",
          "type": "address"
        }
      ],
      "stateMutability": "view",
      "type": "function"
    },
    {
      "inputs": [],
      "name": "renounceOwnership",
      "outputs": [],
      "stateMutability": "nonpayable",
      "type": "function"
    },
    {
      "inputs": [
        {
          "internalType": "address",
          "name": "from",
          "type": "address"
        },
        {
          "internalType": "address",
          "name": "to",
          "type": "address"
        },
        {
          "internalType": "uint256",
          "name": "tokenId",
          "type": "uint256"
        }
      ],
      "name": "safeTransferFrom",
      "outputs": [],
      "stateMutability": "nonpayable",
      "type": "function"
    },
    {
      "inputs": [
        {
          "internalType": "address",
          "name": "from",
          "type": "address"
        },
        {
          "internalType": "address",
          "name": "to",
          "type": "address"
        },
        {
          "internalType": "uint256",
          "name": "tokenId",
          "type": "uint256"
        },
        {
          "internalType": "bytes",
          "name": "data",
          "type": "bytes"
        }
      ],
      "name": "safeTransferFrom",
      "outputs": [],
      "stateMutability": "nonpayable",
      "type": "function"
    },
    {
      "inputs": [
        {
          "internalType": "address",
          "name": "operator",
          "type": "address"
        },
        {
          "internalType": "bool",
          "name": "approved",
          "type": "bool"
        }
      ],
      "name": "setApprovalForAll",
      "outputs": [],
      "stateMutability": "nonpayable",
      "type": "function"
    },
    {
      "inputs": [
        {
          "internalType": "bytes4",
          "name": "interfaceId",
          "type": "bytes4"
        }
      ],
      "name": "supportsInterface",
      "outputs": [
        {
          "internalType": "bool",
          "name": "",
          "type": "bool"
        }
      ],
      "stateMutability": "view",
      "type": "function"
    },
    {
      "inputs": [],
      "name": "symbol",
      "outputs": [
        {
          "internalType": "string",
          "name": "",
          "type": "string"
        }
      ],
      "stateMutability": "view",
      "type": "function"
    },
    {
      "inputs": [
        {
          "internalType": "uint256",
          "name": "tokenId",
          "type": "uint256"
        }
      ],
      "name": "tokenURI",
      "outputs": [
        {
          "internalType": "string",
          "name": "",
          "type": "string"
        }
      ],
      "stateMutability": "view",
      "type": "function"
    },
    {
      "inputs": [
        {
          "internalType": "address",
          "name": "from",
          "type": "address"
        },
        {
          "internalType": "address",
          "name": "to",
          "type": "address"
        },
        {
          "internalType": "uint256",
          "name": "tokenId",
          "type": "uint256"
        }
      ],
      "name": "transferFrom",
      "outputs": [],
      "stateMutability": "nonpayable",
      "type": "function"
    },
    {
      "inputs": [
        {
          "internalType": "address",
          "name": "newOwner",
          "type": "address"
        }
      ],
      "name": "transferOwnership",
      "outputs": [],
      "stateMutability": "nonpayable",
      "type": "function"
    }
  ],
  "bytecode": "0x60806040523480156200001157600080fd5b5060405162001912380380620019128339810160408190526200003491620001b1565b3382826000620000458382620002aa565b506001620000548282620002aa565b5050506001600160a01b0381166200008657604051631e4fbdf760e01b81526000600482015260240160405180910390fd5b62000091816200009a565b50505062000376565b600680546001600160a01b038381166001600160a01b0319831681179093556040519116919082907f8be0079c531659141344cd1fd0a4f28419497f9722a3daafe3b4186f6b6457e090600090a35050565b634e487b7160e01b600052604160045260246000fd5b600082601f8301126200011457600080fd5b81516001600160401b0380821115620001315762000131620000ec565b604051601f8301601f19908116603f011681019082821181831017156200015c576200015c620000ec565b816040528381526020925086838588010111156200017957600080fd5b600091505b838210156200019d57858201830151818301840152908201906200017e565b600093810190920192909252949350505050565b60008060408385031215620001c557600080fd5b82516001600160401b0380821115620001dd57600080fd5b620001eb8683870162000102565b935060208501519150808211156200020257600080fd5b50620002118582860162000102565b9150509250929050565b600181811c908216806200023057607f821691505b6020821081036200025157634e487b7160e01b600052602260045260246000fd5b50919050565b601f821115620002a557600081815260208120601f850160051c81016020861015620002805750805b601f850160051c820191505b81811015620002a1578281556001016200028c565b5050505b505050565b81516001600160401b03811115620002c657620002c6620000ec565b620002de81620002d784546200021b565b8462000257565b602080601f831160018114620003165760008415620002fd5750858301515b600019600386901b1c1916600185901b178555620002a1565b600085815260208120601f198616915b82811015620003475788860151825594840194600190910190840162000326565b5085821015620003665787850151600019600388901b60f8161c191681555b5050505050600190811b01905550565b61158c80620003866000396000f3fe608060405234801561001057600080fd5b506004361061010c5760003560e01c80638da5cb5b1161009d5780638da5cb5b1461021557806395d89b4114610226578063a22cb4651461022e578063aa131a6914610241578063b88d4fde14610254578063c87b56dd14610267578063c8e1e0c81461027a578063dd9351521461029f578063e985e9c5146102b2578063f2fde38b146102c557600080fd5b806301ffc9a71461011157806306fdde0314610139578063081812fc1461014e578063095ea7b31461016e57806323b872dd146101835780633e6c3d0c1461019657806342842e0e146101c65780636352211e146101d957806370a08231146101ec578063715018a61461020d575b600080fd5b61012461011f366004611020565b6102d8565b60405190151581526020015b60405180910390f35b61014161032a565b604051610130919061108d565b61016161015c3660046110a0565b6103bc565b60405161013091906110b9565b61018161017c3660046110e9565b6103d1565b005b610181610191366004611113565b6103e0565b6101b96101a43660046110a0565b60086020526000908152604090205460ff1681565b6040516101309190611187565b6101816101d4366004611113565b610474565b6101616101e73660046110a0565b610494565b6101ff6101fa366004611195565b61049f565b604051908152602001610130565b6101816104e7565b6006546001600160a01b0316610161565b6101416104fb565b61018161023c3660046111b0565b61050a565b6101ff61024f3660046111fd565b610515565b610181610262366004611246565b61063e565b6101416102753660046110a0565b610656565b61028d6102883660046110a0565b610726565b60405160ff9091168152602001610130565b6101416102ad366004611322565b6107a2565b6101246102c036600461133d565b61086a565b6101816102d3366004611195565b610898565b60006001600160e01b031982166380ac58cd60e01b148061030957506001600160e01b03198216635b5e139f60e01b145b8061032457506301ffc9a760e01b6001600160e01b03198316145b92915050565b60606000805461033990611367565b80601f016020809104026020016040519081016040528092919081815260200182805461036590611367565b80156103b25780601f10610387576101008083540402835291602001916103b2565b820191906000526020600020905b81548152906001019060200180831161039557829003601f168201915b5050505050905090565b60006103c7826108d6565b506103248261090e565b6103dc828233610929565b5050565b6001600160a01b038216610413576000604051633250574960e11b815260040161040a91906110b9565b60405180910390fd5b6000610420838333610936565b9050836001600160a01b0316816001600160a01b03161461046e576040516364283d7b60e01b81526001600160a01b038086166004830152602482018490528216604482015260640161040a565b50505050565b61048f8383836040518060200160405280600081525061063e565b505050565b6000610324826108d6565b60006001600160a01b0382166104cb5760006040516322718ad960e21b815260040161040a91906110b9565b506001600160a01b031660009081526003602052604090205490565b6104ef610a2c565b6104f96000610a59565b565b60606001805461033990611367565b6103dc338383610aab565b600061051f610a2c565b60018260ff1610158015610537575060038260ff1611155b6105795760405162461bcd60e51b8152602060048201526013602482015272125b9d985b1a59081d1c9d5cdd081b195d995b606a1b604482015260640161040a565b60016007600082825461058c91906113a1565b909155505060075461059e8482610b41565b8260ff1660038111156105b3576105b361114f565b6000828152600860205260409020805460ff191660018360038111156105db576105db61114f565b0217905550836001600160a01b03167f6e79522d33e3590933a0f11623ebc984abab3d341dd3e9b88e4e2503b15d9ab6828560ff1660038111156106215761062161114f565b60405161062f9291906113c2565b60405180910390a29392505050565b6106498484846103e0565b61046e3385858585610ba6565b6060600061066383610494565b6001600160a01b0316036106cb5760405162461bcd60e51b815260206004820152602960248201527f42616467654e46543a2055524920717565727920666f72206e6f6e657869737460448201526832b73a103a37b5b2b760b91b606482015260840161040a565b6000828152600860205260408120546106f29060ff1660038111156102ad576102ad61114f565b90506106fd83610cbf565b8160405160200161070f9291906113d6565b604051602081830303815290604052915050919050565b60008061073283610494565b6001600160a01b03160361077f5760405162461bcd60e51b815260206004820152601460248201527310985919d948191bd95cc81b9bdd08195e1a5cdd60621b604482015260640161040a565b60008281526008602052604090205460ff1660038111156103245761032461114f565b60608160ff166001036107d657505060408051808201909152600b81526a10985cda58c8151c9d5cdd60aa1b602082015290565b8160ff1660020361080e575050604080518082019091526011815270115e18da185b99d94815995c9a599a5959607a1b602082015290565b8160ff16600303610847575050604080518082019091526012815271105d591a5d195908098815995c9a599a595960721b602082015290565b50506040805180820190915260078152662ab735b737bbb760c91b602082015290565b6001600160a01b03918216600090815260056020908152604080832093909416825291909152205460ff1690565b6108a0610a2c565b6001600160a01b0381166108ca576000604051631e4fbdf760e01b815260040161040a91906110b9565b6108d381610a59565b50565b6000806108e283610d52565b90506001600160a01b03811661032457604051637e27328960e01b81526004810184905260240161040a565b6000908152600460205260409020546001600160a01b031690565b61048f8383836001610d6d565b60008061094284610d52565b90506001600160a01b0383161561095e5761095e818486610e6a565b6001600160a01b0381161561099c5761097b600085600080610d6d565b6001600160a01b038116600090815260036020526040902080546000190190555b6001600160a01b038516156109cb576001600160a01b0385166000908152600360205260409020805460010190555b60008481526002602052604080822080546001600160a01b0319166001600160a01b0389811691821790925591518793918516917fddf252ad1be2c89b69c2b068fc378daa952ba7f163c4a11628f55a4df523b3ef91a490505b9392505050565b6006546001600160a01b031633146104f9573360405163118cdaa760e01b815260040161040a91906110b9565b600680546001600160a01b038381166001600160a01b0319831681179093556040519116919082907f8be0079c531659141344cd1fd0a4f28419497f9722a3daafe3b4186f6b6457e090600090a35050565b6001600160a01b038216610ad45781604051630b61174360e31b815260040161040a91906110b9565b6001600160a01b03838116600081815260056020908152604080832094871680845294825291829020805460ff191686151590811790915591519182527f17307eab39ab6107e8899845ad3d59bd9653f200f220920489ca2b5937696c31910160405180910390a3505050565b6001600160a01b038216610b6b576000604051633250574960e11b815260040161040a91906110b9565b6000610b7983836000610936565b90506001600160a01b0381161561048f5760006040516339e3563760e11b815260040161040a91906110b9565b6001600160a01b0383163b15610cb857604051630a85bd0160e11b81526001600160a01b0384169063150b7a0290610be89088908890879087906004016114fc565b6020604051808303816000875af1925050508015610c23575060408051601f3d908101601f19168201909252610c2091810190611539565b60015b610c83573d808015610c51576040519150601f19603f3d011682016040523d82523d6000602084013e610c56565b606091505b508051600003610c7b5783604051633250574960e11b815260040161040a91906110b9565b805181602001fd5b6001600160e01b03198116630a85bd0160e11b14610cb65783604051633250574960e11b815260040161040a91906110b9565b505b5050505050565b60606000610ccc83610ece565b600101905060008167ffffffffffffffff811115610cec57610cec611230565b6040519080825280601f01601f191660200182016040528015610d16576020820181803683370190505b5090508181016020015b600019016f181899199a1a9b1b9c1cb0b131b232b360811b600a86061a8153600a8504945084610d2057509392505050565b6000908152600260205260409020546001600160a01b031690565b8080610d8157506001600160a01b03821615155b15610e3a576000610d91846108d6565b90506001600160a01b03831615801590610dbd5750826001600160a01b0316816001600160a01b031614155b8015610dd05750610dce818461086a565b155b15610df0578260405163a9fbf51f60e01b815260040161040a91906110b9565b8115610e385783856001600160a01b0316826001600160a01b03167f8c5be1e5ebec7d5bd14f71427d1e84f3dd0314c0f7b2291e5b200ac8c7c3b92560405160405180910390a45b505b5050600090815260046020526040902080546001600160a01b0319166001600160a01b0392909216919091179055565b610e75838383610fa4565b61048f576001600160a01b038316610ea357604051637e27328960e01b81526004810182905260240161040a565b60405163177e802f60e01b81526001600160a01b03831660048201526024810182905260440161040a565b60008072184f03e93ff9f4daa797ed6e38ed64bf6a1f0160401b8310610f0d5772184f03e93ff9f4daa797ed6e38ed64bf6a1f0160401b830492506040015b6904ee2d6d415b85acef8160201b8310610f37576904ee2d6d415b85acef8160201b830492506020015b662386f26fc100008310610f5557662386f26fc10000830492506010015b6305f5e1008310610f6d576305f5e100830492506008015b6127108310610f8157612710830492506004015b60648310610f93576064830492506002015b600a83106103245760010192915050565b60006001600160a01b038316158015906110025750826001600160a01b0316846001600160a01b03161480610fde5750610fde848461086a565b806110025750826001600160a01b0316610ff78361090e565b6001600160a01b0316145b949350505050565b6001600160e01b0319811681146108d357600080fd5b60006020828403121561103257600080fd5b8135610a258161100a565b60005b83811015611058578181015183820152602001611040565b50506000910152565b6000815180845261107981602086016020860161103d565b601f01601f19169290920160200192915050565b602081526000610a256020830184611061565b6000602082840312156110b257600080fd5b5035919050565b6001600160a01b0391909116815260200190565b80356001600160a01b03811681146110e457600080fd5b919050565b600080604083850312156110fc57600080fd5b611105836110cd565b946020939093013593505050565b60008060006060848603121561112857600080fd5b611131846110cd565b925061113f602085016110cd565b9150604084013590509250925092565b634e487b7160e01b600052602160045260246000fd5b6004811061118357634e487b7160e01b600052602160045260246000fd5b9052565b602081016103248284611165565b6000602082840312156111a757600080fd5b610a25826110cd565b600080604083850312156111c357600080fd5b6111cc836110cd565b9150602083013580151581146111e157600080fd5b809150509250929050565b803560ff811681146110e457600080fd5b6000806040838503121561121057600080fd5b611219836110cd565b9150611227602084016111ec565b90509250929050565b634e487b7160e01b600052604160045260246000fd5b6000806000806080858703121561125c57600080fd5b611265856110cd565b9350611273602086016110cd565b925060408501359150606085013567ffffffffffffffff8082111561129757600080fd5b818701915087601f8301126112ab57600080fd5b8135818111156112bd576112bd611230565b604051601f8201601f19908116603f011681019083821181831017156112e5576112e5611230565b816040528281528a60208487010111156112fe57600080fd5b82602086016020830137600060208483010152809550505050505092959194509250565b60006020828403121561133457600080fd5b610a25826111ec565b6000806040838503121561135057600080fd5b611359836110cd565b9150611227602084016110cd565b600181811c9082168061137b57607f821691505b60208210810361139b57634e487b7160e01b600052602260045260246000fd5b50919050565b8082018082111561032457634e487b7160e01b600052601160045260246000fd5b82815260408101610a256020830184611165565b7f646174613a6170706c69636174696f6e2f6a736f6e3b757466382c7b00000000815272226e616d65223a2254504e204261646765202360681b601c820152825160009061142b81602f85016020880161103d565b61088b60f21b602f918401918201527f226465736372697074696f6e223a22496d6d757461626c652050726f6f66206f60318201527f662054727573742066726f6d2054696d6570726f6f66204e6574776f726b222c60518201527f2261747472696275746573223a5b7b2274726169745f74797065223a2254504e607182015276102a393ab9ba102632bb32b61116113b30b63ab2911d1160491b609182015283516114df8160a884016020880161103d565b63227d5d7d60e01b60a8929091019182015260ac01949350505050565b6001600160a01b038581168252841660208201526040810183905260806060820181905260009061152f90830184611061565b9695505050505050565b60006020828403121561154b57600080fd5b8151610a258161100a56fea264697066735822122078ab8c497bc3197c5d8ca6b0cf5377217218a96126011555601fb78976d06ff964736f6c63430008140033",
  "linkReferences": {},
  "deployedLinkReferences": {}
}