{
  "_format": "hh-sol-artifact-1",
  "contractName": "TokenRegistry",
  "sourceName": "contracts/TokenRegistry.sol",
  "abi": [
    {
      "inputs": [
        {
          "internalType": "address",
          "name": "_tpnTokenAddress",
          "type": "address"
        },
        {
          "internalType": "address",
          "name": "_badgeNFTAddress",
          "type": "address"
        }
      ],
      "stateMutability": "nonpayable",
      "type": "constructor"
    },
    {
      "anonymous": false,
      "inputs": [
        {
          "indexed": false,
          "internalType": "address",
          "name": "tokenAddress",
          "type": "address"
        },
        {
          "indexed": false,
          "internalType": "uint8",
          "name": "newLevel",
          "type": "uint8"
        }
      ],
      "name": "BadgeLevelUpdated",
      "type": "event"
    },
    {
      "anonymous": false,
      "inputs": [
        {
          "indexed": false,
          "internalType": "string",
          "name": "name",
          "type": "string"
        },
        {
          "indexed": false,
          "internalType": "string",
          "name": "symbol",
          "type": "string"
        }
      ],
      "name": "DAOBanApplied",
      "type": "event"
    },
    {
      "anonymous": false,
      "inputs": [
        {
          "indexed": false,
          "internalType": "address",
          "name": "newDAO",
          "type": "address"
        }
      ],
      "name": "DAOSet",
      "type": "event"
    },
    {
      "anonymous": false,
      "inputs": [
        {
          "indexed": false,
          "internalType": "uint256",
          "name": "newFee",
          "type": "uint256"
        }
      ],
      "name": "MinFeeUpdated",
      "type": "event"
    },
    {
      "anonymous": false,
      "inputs": [
        {
          "indexed": true,
          "internalType": "address",
          "name": "previousOwner",
          "type": "address"
        },
        {
          "indexed": true,
          "internalType": "address",
          "name": "newOwner",
          "type": "address"
        }
      ],
      "name": "OwnershipTransferred",
      "type": "event"
    },
    {
      "anonymous": false,
      "inputs": [],
      "name": "RegistryPaused",
      "type": "event"
    },
    {
      "anonymous": false,
      "inputs": [],
      "name": "RegistryUnpaused",
      "type": "event"
    },
    {
      "anonymous": false,
      "inputs": [
        {
          "indexed": false,
          "internalType": "string",
          "name": "name",
          "type": "string"
        },
        {
          "indexed": false,
          "internalType": "string",
          "name": "symbol",
          "type": "string"
        },
        {
          "indexed": false,
          "internalType": "address",
          "name": "removedToken",
          "type": "address"
        },
        {
          "indexed": false,
          "internalType": "address",
          "name": "keeper",
          "type": "address"
        }
      ],
      "name": "SelfHealTriggered",
      "type": "event"
    },
    {
      "anonymous": false,
      "inputs": [
        {
          "indexed": false,
          "internalType": "string",
          "name": "name",
          "type": "string"
        },
        {
          "indexed": false,
          "internalType": "string",
          "name": "symbol",
          "type": "string"
        }
      ],
      "name": "TokenGloballyBanned",
      "type": "event"
    },
    {
      "anonymous": false,
      "inputs": [
        {
          "indexed": false,
          "internalType": "string",
          "name": "name",
          "type": "string"
        },
        {
          "indexed": false,
          "internalType": "string",
          "name": "symbol",
          "type": "string"
        }
      ],
      "name": "TokenQuarantined",
      "type": "event"
    },
    {
      "anonymous": false,
      "inputs": [
        {
          "indexed": false,
          "internalType": "string",
          "name": "name",
          "type": "string"
        },
        {
          "indexed": false,
          "internalType": "string",
          "name": "symbol",
          "type": "string"
        },
        {
          "indexed": true,
          "internalType": "address",
          "name": "tokenAddress",
          "type": "address"
        },
        {
          "indexed": true,
          "internalType": "address",
          "name": "registeredBy",
          "type": "address"
        },
        {
          "indexed": false,
          "internalType": "uint8",
          "name": "trustLevel",
          "type": "uint8"
        },
        {
          "indexed": false,
          "internalType": "uint256",
          "name": "timestamp",
          "type": "uint256"
        }
      ],
      "name": "TokenRegistered",
      "type": "event"
    },
    {
      "anonymous": false,
      "inputs": [
        {
          "indexed": false,
          "internalType": "string",
          "name": "name",
          "type": "string"
        },
        {
          "indexed": false,
          "internalType": "string",
          "name": "symbol",
          "type": "string"
        }
      ],
      "name": "TokenUnbanned",
      "type": "event"
    },
    {
      "anonymous": false,
      "inputs": [
        {
          "indexed": false,
          "internalType": "string",
          "name": "name",
          "type": "string"
        },
        {
          "indexed": false,
          "internalType": "string",
          "name": "symbol",
          "type": "string"
        }
      ],
      "name": "TokenUnquarantined",
      "type": "event"
    },
    {
      "inputs": [
        {
          "internalType": "uint256",
          "name": "",
          "type": "uint256"
        }
      ],
      "name": "allRegisteredTokens",
      "outputs": [
        {
          "internalType": "address",
          "name": "",
          "type": "address"
        }
      ],
      "stateMutability": "view",
      "type": "function"
    },
    {
      "inputs": [],
      "name": "badgeNFTAddress",
      "outputs": [
        {
          "internalType": "address",
          "name": "",
          "type": "address"
        }
      ],
      "stateMutability": "view",
      "type": "function"
    },
    {
      "inputs": [
        {
          "internalType": "string[]",
          "name": "names",
          "type": "string[]"
        },
        {
          "internalType": "string[]",
          "name": "symbols",
          "type": "string[]"
        }
      ],
      "name": "batchBanTokens",
      "outputs": [],
      "stateMutability": "nonpayable",
      "type": "function"
    },
    {
      "inputs": [
        {
          "internalType": "address",
          "name": "",
          "type": "address"
        }
      ],
      "name": "creatorSubmissionCount",
      "outputs": [
        {
          "internalType": "uint256",
          "name": "",
          "type": "uint256"
        }
      ],
      "stateMutability": "view",
      "type": "function"
    },
    {
      "inputs": [
        {
          "internalType": "address",
          "name": "",
          "type": "address"
        }
      ],
      "name": "customCooldowns",
      "outputs": [
        {
          "internalType": "uint256",
          "name": "",
          "type": "uint256"
        }
      ],
      "stateMutability": "view",
      "type": "function"
    },
    {
      "inputs": [],
      "name": "dao",
      "outputs": [
        {
          "internalType": "address",
          "name": "",
          "type": "address"
        }
      ],
      "stateMutability": "view",
      "type": "function"
    },
    {
      "inputs": [
        {
          "internalType": "string",
          "name": "name",
          "type": "string"
        },
        {
          "internalType": "string",
          "name": "symbol",
          "type": "string"
        },
        {
          "internalType": "bool",
          "name": "stripBadge",
          "type": "bool"
        }
      ],
      "name": "daoBan",
      "outputs": [],
      "stateMutability": "nonpayable",
      "type": "function"
    },
    {
      "inputs": [
        {
          "internalType": "uint256",
          "name": "",
          "type": "uint256"
        }
      ],
      "name": "daoBanLogbook",
      "outputs": [
        {
          "internalType": "string",
          "name": "name",
          "type": "string"
        },
        {
          "internalType": "string",
          "name": "symbol",
          "type": "string"
        },
        {
          "internalType": "address",
          "name": "tokenAddress",
          "type": "address"
        },
        {
          "internalType": "address",
          "name": "registeredBy",
          "type": "address"
        },
        {
          "internalType": "uint256",
          "name": "timestamp",
          "type": "uint256"
        }
      ],
      "stateMutability": "view",
      "type": "function"
    },
    {
      "inputs": [
        {
          "internalType": "address",
          "name": "token",
          "type": "address"
        },
        {
          "internalType": "uint8",
          "name": "newLevel",
          "type": "uint8"
        },
        {
          "internalType": "string",
          "name": "proof1",
          "type": "string"
        },
        {
          "internalType": "string",
          "name": "",
          "type": "string"
        }
      ],
      "name": "daoDowngradeTrustLevel",
      "outputs": [],
      "stateMutability": "nonpayable",
      "type": "function"
    },
    {
      "inputs": [
        {
          "internalType": "bytes32",
          "name": "",
          "type": "bytes32"
        }
      ],
      "name": "daoPunishmentBan",
      "outputs": [
        {
          "internalType": "bool",
          "name": "",
          "type": "bool"
        }
      ],
      "stateMutability": "view",
      "type": "function"
    },
    {
      "inputs": [
        {
          "internalType": "string",
          "name": "name",
          "type": "string"
        },
        {
          "internalType": "string",
          "name": "symbol",
          "type": "string"
        }
      ],
      "name": "daoQuarantine",
      "outputs": [],
      "stateMutability": "nonpayable",
      "type": "function"
    },
    {
      "inputs": [
        {
          "internalType": "address",
          "name": "token",
          "type": "address"
        },
        {
          "internalType": "uint8",
          "name": "newLevel",
          "type": "uint8"
        },
        {
          "internalType": "string",
          "name": "proof1",
          "type": "string"
        },
        {
          "internalType": "string",
          "name": "proof2",
          "type": "string"
        }
      ],
      "name": "daoUpgradeTrustLevel",
      "outputs": [],
      "stateMutability": "nonpayable",
      "type": "function"
    },
    {
      "inputs": [],
      "name": "defaultCooldown",
      "outputs": [
        {
          "internalType": "uint256",
          "name": "",
          "type": "uint256"
        }
      ],
      "stateMutability": "view",
      "type": "function"
    },
    {
      "inputs": [],
      "name": "defaultMaxBurst",
      "outputs": [
        {
          "internalType": "uint256",
          "name": "",
          "type": "uint256"
        }
      ],
      "stateMutability": "view",
      "type": "function"
    },
    {
      "inputs": [
        {
          "internalType": "uint256",
          "name": "index",
          "type": "uint256"
        }
      ],
      "name": "getDAOBannedToken",
      "outputs": [
        {
          "internalType": "string",
          "name": "name",
          "type": "string"
        },
        {
          "internalType": "string",
          "name": "symbol",
          "type": "string"
        },
        {
          "internalType": "address",
          "name": "tokenAddress",
          "type": "address"
        },
        {
          "internalType": "address",
          "name": "registeredBy",
          "type": "address"
        },
        {
          "internalType": "uint256",
          "name": "timestamp",
          "type": "uint256"
        }
      ],
      "stateMutability": "view",
      "type": "function"
    },
    {
      "inputs": [
        {
          "internalType": "uint256",
          "name": "index",
          "type": "uint256"
        }
      ],
      "name": "getQuarantinedToken",
      "outputs": [
        {
          "internalType": "string",
          "name": "name",
          "type": "string"
        },
        {
          "internalType": "string",
          "name": "symbol",
          "type": "string"
        },
        {
          "internalType": "address",
          "name": "tokenAddress",
          "type": "address"
        },
        {
          "internalType": "address",
          "name": "registeredBy",
          "type": "address"
        },
        {
          "internalType": "uint256",
          "name": "timestamp",
          "type": "uint256"
        }
      ],
      "stateMutability": "view",
      "type": "function"
    },
    {
      "inputs": [
        {
          "internalType": "string",
          "name": "name",
          "type": "string"
        },
        {
          "internalType": "string",
          "name": "symbol",
          "type": "string"
        }
      ],
      "name": "getRegisteredToken",
      "outputs": [
        {
          "internalType": "string",
          "name": "",
          "type": "string"
        },
        {
          "internalType": "string",
          "name": "",
          "type": "string"
        },
        {
          "internalType": "address",
          "name": "",
          "type": "address"
        },
        {
          "internalType": "address",
          "name": "",
          "type": "address"
        },
        {
          "internalType": "uint256",
          "name": "",
          "type": "uint256"
        },
        {
          "internalType": "uint8",
          "name": "",
          "type": "uint8"
        },
        {
          "internalType": "bool",
          "name": "",
          "type": "bool"
        }
      ],
      "stateMutability": "view",
      "type": "function"
    },
    {
      "inputs": [
        {
          "internalType": "address",
          "name": "token",
          "type": "address"
        }
      ],
      "name": "getTokenBadgeMetadata",
      "outputs": [
        {
          "internalType": "string",
          "name": "name",
          "type": "string"
        },
        {
          "internalType": "string",
          "name": "symbol",
          "type": "string"
        },
        {
          "internalType": "uint8",
          "name": "trustLevel",
          "type": "uint8"
        },
        {
          "internalType": "string",
          "name": "levelName",
          "type": "string"
        },
        {
          "internalType": "string",
          "name": "levelColor",
          "type": "string"
        },
        {
          "internalType": "uint256",
          "name": "timestamp",
          "type": "uint256"
        }
      ],
      "stateMutability": "view",
      "type": "function"
    },
    {
      "inputs": [
        {
          "internalType": "address",
          "name": "tokenAddress",
          "type": "address"
        }
      ],
      "name": "getTokenInfo",
      "outputs": [
        {
          "internalType": "string",
          "name": "",
          "type": "string"
        },
        {
          "internalType": "string",
          "name": "",
          "type": "string"
        },
        {
          "internalType": "address",
          "name": "",
          "type": "address"
        },
        {
          "internalType": "address",
          "name": "",
          "type": "address"
        },
        {
          "internalType": "uint256",
          "name": "",
          "type": "uint256"
        },
        {
          "internalType": "uint8",
          "name": "",
          "type": "uint8"
        }
      ],
      "stateMutability": "view",
      "type": "function"
    },
    {
      "inputs": [],
      "name": "getTokenLogbook",
      "outputs": [
        {
          "components": [
            {
              "internalType": "string",
              "name": "name",
              "type": "string"
            },
            {
              "internalType": "string",
              "name": "symbol",
              "type": "string"
            },
            {
              "internalType": "address",
              "name": "tokenAddress",
              "type": "address"
            },
            {
              "internalType": "address",
              "name": "registeredBy",
              "type": "address"
            },
            {
              "internalType": "uint256",
              "name": "timestamp",
              "type": "uint256"
            },
            {
              "internalType": "uint8",
              "name": "trustLevel",
              "type": "uint8"
            },
            {
              "internalType": "bool",
              "name": "isRegistered",
              "type": "bool"
            }
          ],
          "internalType": "struct TokenRegistry.TokenInfo[]",
          "name": "",
          "type": "tuple[]"
        }
      ],
      "stateMutability": "view",
      "type": "function"
    },
    {
      "inputs": [],
      "name": "getTotalDAOBanned",
      "outputs": [
        {
          "internalType": "uint256",
          "name": "",
          "type": "uint256"
        }
      ],
      "stateMutability": "view",
      "type": "function"
    },
    {
      "inputs": [],
      "name": "getTotalQuarantined",
      "outputs": [
        {
          "internalType": "uint256",
          "name": "",
          "type": "uint256"
        }
      ],
      "stateMutability": "view",
      "type": "function"
    },
    {
      "inputs": [
        {
          "internalType": "address",
          "name": "token",
          "type": "address"
        }
      ],
      "name": "getTrustDetails",
      "outputs": [
        {
          "internalType": "string",
          "name": "name",
          "type": "string"
        },
        {
          "internalType": "string",
          "name": "symbol",
          "type": "string"
        },
        {
          "internalType": "uint8",
          "name": "trustLevel",
          "type": "uint8"
        },
        {
          "internalType": "string",
          "name": "levelName",
          "type": "string"
        },
        {
          "internalType": "string",
          "name": "levelColor",
          "type": "string"
        }
      ],
      "stateMutability": "view",
      "type": "function"
    },
    {
      "inputs": [
        {
          "internalType": "address",
          "name": "token",
          "type": "address"
        }
      ],
      "name": "getTrustLevel",
      "outputs": [
        {
          "internalType": "uint8",
          "name": "",
          "type": "uint8"
        }
      ],
      "stateMutability": "view",
      "type": "function"
    },
    {
      "inputs": [
        {
          "internalType": "bytes32",
          "name": "",
          "type": "bytes32"
        }
      ],
      "name": "globalBanList",
      "outputs": [
        {
          "internalType": "bool",
          "name": "",
          "type": "bool"
        }
      ],
      "stateMutability": "view",
      "type": "function"
    },
    {
      "inputs": [
        {
          "internalType": "string",
          "name": "name",
          "type": "string"
        },
        {
          "internalType": "string",
          "name": "symbol",
          "type": "string"
        }
      ],
      "name": "isDAOPunished",
      "outputs": [
        {
          "internalType": "bool",
          "name": "",
          "type": "bool"
        }
      ],
      "stateMutability": "view",
      "type": "function"
    },
    {
      "inputs": [
        {
          "internalType": "string",
          "name": "name",
          "type": "string"
        },
        {
          "internalType": "string",
          "name": "symbol",
          "type": "string"
        }
      ],
      "name": "isGloballyBanned",
      "outputs": [
        {
          "internalType": "bool",
          "name": "",
          "type": "bool"
        }
      ],
      "stateMutability": "view",
      "type": "function"
    },
    {
      "inputs": [
        {
          "internalType": "string",
          "name": "name",
          "type": "string"
        },
        {
          "internalType": "string",
          "name": "symbol",
          "type": "string"
        }
      ],
      "name": "isInSuspicionList",
      "outputs": [
        {
          "internalType": "bool",
          "name": "",
          "type": "bool"
        }
      ],
      "stateMutability": "view",
      "type": "function"
    },
    {
      "inputs": [],
      "name": "isPaused",
      "outputs": [
        {
          "internalType": "bool",
          "name": "",
          "type": "bool"
        }
      ],
      "stateMutability": "view",
      "type": "function"
    },
    {
      "inputs": [
        {
          "internalType": "string",
          "name": "name",
          "type": "string"
        },
        {
          "internalType": "string",
          "name": "symbol",
          "type": "string"
        }
      ],
      "name": "isQuarantined",
      "outputs": [
        {
          "internalType": "bool",
          "name": "",
          "type": "bool"
        }
      ],
      "stateMutability": "view",
      "type": "function"
    },
    {
      "inputs": [
        {
          "internalType": "address",
          "name": "",
          "type": "address"
        }
      ],
      "name": "lastSubmissionTimestamp",
      "outputs": [
        {
          "internalType": "uint256",
          "name": "",
          "type": "uint256"
        }
      ],
      "stateMutability": "view",
      "type": "function"
    },
    {
      "inputs": [],
      "name": "minTPNFee",
      "outputs": [
        {
          "internalType": "uint256",
          "name": "",
          "type": "uint256"
        }
      ],
      "stateMutability": "view",
      "type": "function"
    },
    {
      "inputs": [
        {
          "internalType": "bytes32",
          "name": "",
          "type": "bytes32"
        }
      ],
      "name": "nameSymbolToAddress",
      "outputs": [
        {
          "internalType": "address",
          "name": "",
          "type": "address"
        }
      ],
      "stateMutability": "view",
      "type": "function"
    },
    {
      "inputs": [],
      "name": "owner",
      "outputs": [
        {
          "internalType": "address",
          "name": "",
          "type": "address"
        }
      ],
      "stateMutability": "view",
      "type": "function"
    },
    {
      "inputs": [],
      "name": "paused",
      "outputs": [
        {
          "internalType": "bool",
          "name": "",
          "type": "bool"
        }
      ],
      "stateMutability": "view",
      "type": "function"
    },
    {
      "inputs": [
        {
          "internalType": "bytes32",
          "name": "",
          "type": "bytes32"
        }
      ],
      "name": "quarantineList",
      "outputs": [
        {
          "internalType": "bool",
          "name": "",
          "type": "bool"
        }
      ],
      "stateMutability": "view",
      "type": "function"
    },
    {
      "inputs": [
        {
          "internalType": "uint256",
          "name": "",
          "type": "uint256"
        }
      ],
      "name": "quarantineLogbook",
      "outputs": [
        {
          "internalType": "string",
          "name": "name",
          "type": "string"
        },
        {
          "internalType": "string",
          "name": "symbol",
          "type": "string"
        },
        {
          "internalType": "address",
          "name": "tokenAddress",
          "type": "address"
        },
        {
          "internalType": "address",
          "name": "registeredBy",
          "type": "address"
        },
        {
          "internalType": "uint256",
          "name": "timestamp",
          "type": "uint256"
        }
      ],
      "stateMutability": "view",
      "type": "function"
    },
    {
      "inputs": [
        {
          "internalType": "string",
          "name": "name",
          "type": "string"
        },
        {
          "internalType": "string",
          "name": "symbol",
          "type": "string"
        },
        {
          "internalType": "address",
          "name": "tokenAddress",
          "type": "address"
        },
        {
          "internalType": "uint8",
          "name": "trustLevel",
          "type": "uint8"
        }
      ],
      "name": "registerToken",
      "outputs": [],
      "stateMutability": "nonpayable",
      "type": "function"
    },
    {
      "inputs": [
        {
          "internalType": "address",
          "name": "",
          "type": "address"
        }
      ],
      "name": "registeredTokens",
      "outputs": [
        {
          "internalType": "string",
          "name": "name",
          "type": "string"
        },
        {
          "internalType": "string",
          "name": "symbol",
          "type": "string"
        },
        {
          "internalType": "address",
          "name": "tokenAddress",
          "type": "address"
        },
        {
          "internalType": "address",
          "name": "registeredBy",
          "type": "address"
        },
        {
          "internalType": "uint256",
          "name": "timestamp",
          "type": "uint256"
        },
        {
          "internalType": "uint8",
          "name": "trustLevel",
          "type": "uint8"
        },
        {
          "internalType": "bool",
          "name": "isRegistered",
          "type": "bool"
        }
      ],
      "stateMutability": "view",
      "type": "function"
    },
    {
      "inputs": [
        {
          "internalType": "string",
          "name": "input",
          "type": "string"
        }
      ],
      "name": "sanitize",
      "outputs": [
        {
          "internalType": "string",
          "name": "",
          "type": "string"
        }
      ],
      "stateMutability": "pure",
      "type": "function"
    },
    {
      "inputs": [
        {
          "internalType": "address[]",
          "name": "all",
          "type": "address[]"
        }
      ],
      "name": "selfHeal",
      "outputs": [],
      "stateMutability": "nonpayable",
      "type": "function"
    },
    {
      "inputs": [
        {
          "internalType": "address",
          "name": "newDAO",
          "type": "address"
        }
      ],
      "name": "setDAO",
      "outputs": [],
      "stateMutability": "nonpayable",
      "type": "function"
    },
    {
      "inputs": [
        {
          "internalType": "address",
          "name": "",
          "type": "address"
        }
      ],
      "name": "submissionBurstCount",
      "outputs": [
        {
          "internalType": "uint256",
          "name": "",
          "type": "uint256"
        }
      ],
      "stateMutability": "view",
      "type": "function"
    },
    {
      "inputs": [
        {
          "internalType": "bytes32",
          "name": "",
          "type": "bytes32"
        }
      ],
      "name": "suspicionList",
      "outputs": [
        {
          "internalType": "bool",
          "name": "",
          "type": "bool"
        }
      ],
      "stateMutability": "view",
      "type": "function"
    },
    {
      "inputs": [
        {
          "internalType": "uint256",
          "name": "",
          "type": "uint256"
        }
      ],
      "name": "tokenLogbook",
      "outputs": [
        {
          "internalType": "string",
          "name": "name",
          "type": "string"
        },
        {
          "internalType": "string",
          "name": "symbol",
          "type": "string"
        },
        {
          "internalType": "address",
          "name": "tokenAddress",
          "type": "address"
        },
        {
          "internalType": "address",
          "name": "registeredBy",
          "type": "address"
        },
        {
          "internalType": "uint256",
          "name": "timestamp",
          "type": "uint256"
        },
        {
          "internalType": "uint8",
          "name": "trustLevel",
          "type": "uint8"
        },
        {
          "internalType": "bool",
          "name": "isRegistered",
          "type": "bool"
        }
      ],
      "stateMutability": "view",
      "type": "function"
    },
    {
      "inputs": [],
      "name": "tpnTokenAddress",
      "outputs": [
        {
          "internalType": "address",
          "name": "",
          "type": "address"
        }
      ],
      "stateMutability": "view",
      "type": "function"
    },
    {
      "inputs": [
        {
          "internalType": "address",
          "name": "newOwner",
          "type": "address"
        }
      ],
      "name": "transferOwnership",
      "outputs": [],
      "stateMutability": "nonpayable",
      "type": "function"
    },
    {
      "inputs": [
        {
          "internalType": "string",
          "name": "name",
          "type": "string"
        },
        {
          "internalType": "string",
          "name": "symbol",
          "type": "string"
        }
      ],
      "name": "unquarantineToken",
      "outputs": [],
      "stateMutability": "nonpayable",
      "type": "function"
    },
    {
      "inputs": [
        {
          "internalType": "uint256",
          "name": "newFee",
          "type": "uint256"
        }
      ],
      "name": "updateMinFee",
      "outputs": [],
      "stateMutability": "nonpayable",
      "type": "function"
    },
    {
      "inputs": [
        {
          "internalType": "bytes32",
          "name": "",
          "type": "bytes32"
        }
      ],
      "name": "usedFingerprints",
      "outputs": [
        {
          "internalType": "bool",
          "name": "",
          "type": "bool"
        }
      ],
      "stateMutability": "view",
      "type": "function"
    }
  ],
  "bytecode": "0x608060405268056bc75e2d631000006004556012601555603c6016553480156200002857600080fd5b5060405162004ca738038062004ca78339810160408190526200004b9162000159565b6001600160a01b038216620000a75760405162461bcd60e51b815260206004820152601360248201527f496e76616c69642054504e20616464726573730000000000000000000000000060448201526064015b60405180910390fd5b6001600160a01b038116620000ff5760405162461bcd60e51b815260206004820152601860248201527f496e76616c69642042616467654e46542061646472657373000000000000000060448201526064016200009e565b600080546001600160a01b03199081163317909155600180546001600160a01b039485169083161790556002805492909316911617905562000191565b80516001600160a01b03811681146200015457600080fd5b919050565b600080604083850312156200016d57600080fd5b62000178836200013c565b915062000188602084016200013c565b90509250929050565b614b0680620001a16000396000f3fe608060405234801561001057600080fd5b50600436106102745760003560e01c80636a4b783d11610152578063aca93904116100c9578063aca9390414610608578063b187bd261461062b578063b54e7a4a14610636578063b6b4ace414610656578063ba0a6b2e14610669578063bf16d08d1461068c578063ced61b72146106b1578063dd33e4dc146106c4578063e2380113146106e4578063e73a914c14610707578063f2fde38b1461071a578063fe17a6b41461072d578063fe52e4841461074057600080fd5b80636a4b783d146104e7578063743b77721461052857806374b49eba1461053b5780637ff6f8821461055e57806382daa41914610571578063896d21241461057a5780638a6c9e22146105835780638c0bd916146105965780638da5cb5b146105bc578063946d6aeb146105cf578063a205dcc6146105e2578063aab14d50146105f557600080fd5b80633711bb6e116101f15780633711bb6e146103ed57806338bcba91146104025780633a75adf3146104255780634162169f1461043857806343135ead1461044b5780634867ef4f1461046b5780634ef89d891461047e57806358e2b164146104915780635a6f0b11146104a45780635c975abb146104b75780635ceae494146104c45780635ea78df0146104d757806364ab9b2a146104df57600080fd5b806266af6714610279578062e884a6146102a257806311acf459146102b75780631726689d146102db57806317f7ad17146102ff5780631d0629cc146103125780631f69565f1461033b57806322b6434f1461036057806332198c7414610373578063324379a9146103965780633644956d146103c457806336b41313146103cd575b600080fd5b60025461028c906001600160a01b031681565b6040516102999190613da8565b60405180910390f35b6102aa610753565b6040516102999190613e0c565b6102ca6102c5366004613ef4565b610925565b604051610299959493929190613f16565b6102ee6102e9366004613f78565b610c7b565b604051610299959493929190613f91565b6102ee61030d366004613f78565b610dde565b61028c610320366004613f78565b6009602052600090815260409020546001600160a01b031681565b61034e610349366004613ef4565b610f5f565b60405161029996959493929190613fdb565b61028c61036e366004613f78565b611146565b6103866103813660046140e7565b611170565b6040519015158152602001610299565b6103b66103a4366004613ef4565b60136020526000908152604090205481565b604051908152602001610299565b6103b660045481565b6103b66103db366004613ef4565b60146020526000908152604090205481565b6104006103fb3660046140e7565b61119d565b005b610386610410366004613f78565b600b6020526000908152604090205460ff1681565b60015461028c906001600160a01b031681565b60035461028c906001600160a01b031681565b6103b6610459366004613ef4565b60126020526000908152604090205481565b610400610479366004613f78565b61122b565b61038661048c3660046140e7565b611291565b61038661049f3660046140e7565b6112a1565b6104006104b23660046140e7565b6112b1565b6005546103869060ff1681565b6102ee6104d2366004613f78565b6113bf565b600e546103b6565b600f546103b6565b6105166104f5366004613ef4565b6001600160a01b031660009081526007602052604090206005015460ff1690565b60405160ff9091168152602001610299565b6103866105363660046140e7565b611575565b610386610549366004613f78565b60086020526000908152604090205460ff1681565b61040061056c36600461415b565b611585565b6103b660155481565b6103b660165481565b6102ee610591366004613f78565b611999565b6105a96105a4366004613ef4565b6119a9565b60405161029997969594939291906141df565b60005461028c906001600160a01b031681565b6104006105dd366004614263565b611b08565b6105a96105f03660046140e7565b61229c565b6104006106033660046142ff565b6124e8565b610386610616366004613f78565b600a6020526000908152604090205460ff1681565b60055460ff16610386565b610649610644366004614383565b612dcb565b60405161029991906143bf565b61040061066436600461445c565b612fff565b610386610677366004613f78565b600d6020526000908152604090205460ff1681565b61069f61069a366004613ef4565b61316e565b604051610299969594939291906144b5565b6104006106bf36600461452d565b6134aa565b6103b66106d2366004613ef4565b60106020526000908152604090205481565b6103866106f2366004613f78565b600c6020526000908152604090205460ff1681565b610400610715366004613ef4565b61376b565b610400610728366004613ef4565b613824565b61040061073b36600461415b565b6138ee565b6105a961074e366004613f78565b613ad6565b60606011805480602002602001604051908101604052809291908181526020016000905b8282101561091c57838290600052602060002090600602016040518060e00160405290816000820180546107aa906145a4565b80601f01602080910402602001604051908101604052809291908181526020018280546107d6906145a4565b80156108235780601f106107f857610100808354040283529160200191610823565b820191906000526020600020905b81548152906001019060200180831161080657829003601f168201915b5050505050815260200160018201805461083c906145a4565b80601f0160208091040260200160405190810160405280929190818152602001828054610868906145a4565b80156108b55780601f1061088a576101008083540402835291602001916108b5565b820191906000526020600020905b81548152906001019060200180831161089857829003601f168201915b505050918352505060028201546001600160a01b03908116602080840191909152600384015490911660408301526004830154606083015260059092015460ff808216608084015261010090910416151560a0909101529082526001929092019101610777565b50505050905090565b6060806000606080600060076000886001600160a01b03166001600160a01b031681526020019081526020016000206040518060e001604052908160008201805461096f906145a4565b80601f016020809104026020016040519081016040528092919081815260200182805461099b906145a4565b80156109e85780601f106109bd576101008083540402835291602001916109e8565b820191906000526020600020905b8154815290600101906020018083116109cb57829003601f168201915b50505050508152602001600182018054610a01906145a4565b80601f0160208091040260200160405190810160405280929190818152602001828054610a2d906145a4565b8015610a7a5780601f10610a4f57610100808354040283529160200191610a7a565b820191906000526020600020905b815481529060010190602001808311610a5d57829003601f168201915b505050918352505060028201546001600160a01b03908116602083015260038301541660408201526004820154606082015260059091015460ff808216608084015261010090910416151560a09091015260c0810151909150610af85760405162461bcd60e51b8152600401610aef906145de565b60405180910390fd5b8051602082015160a08301519197509550935060ff8416600103610b63576040518060400160405280600b81526020016a10985cda58c8151c9d5cdd60aa1b8152509250604051806040016040528060078152602001660234646443730360cc1b8152509150610c71565b8360ff16600203610bc15760405180604001604052806011815260200170115e18da185b99d94815995c9a599a5959607a1b8152509250604051806040016040528060078152602001660233030464630360cc1b8152509150610c71565b8360ff16600303610c29576040518060400160405280601b81526020017a105d591a5d1959080988115e18da185b99d94815995c9a599a5959602a1b8152509250604051806040016040528060078152602001660233830303038360cc1b8152509150610c71565b6040518060400160405280600a815260200169155b9d995c9a599a595960b21b81525092506040518060400160405280600781526020016611a3232323232360c91b81525091505b5091939590929450565b600e8181548110610c8b57600080fd5b9060005260206000209060050201600091509050806000018054610cae906145a4565b80601f0160208091040260200160405190810160405280929190818152602001828054610cda906145a4565b8015610d275780601f10610cfc57610100808354040283529160200191610d27565b820191906000526020600020905b815481529060010190602001808311610d0a57829003601f168201915b505050505090806001018054610d3c906145a4565b80601f0160208091040260200160405190810160405280929190818152602001828054610d68906145a4565b8015610db55780601f10610d8a57610100808354040283529160200191610db5565b820191906000526020600020905b815481529060010190602001808311610d9857829003601f168201915b505050506002830154600384015460049094015492936001600160a01b03918216939116915085565b606080600080600080600f8781548110610dfa57610dfa61460c565b600091825260209091206005909102016002810154600382015460048301548354939450849360018501936001600160a01b03908116931691908590610e3f906145a4565b80601f0160208091040260200160405190810160405280929190818152602001828054610e6b906145a4565b8015610eb85780601f10610e8d57610100808354040283529160200191610eb8565b820191906000526020600020905b815481529060010190602001808311610e9b57829003601f168201915b50505050509450838054610ecb906145a4565b80601f0160208091040260200160405190810160405280929190818152602001828054610ef7906145a4565b8015610f445780601f10610f1957610100808354040283529160200191610f44565b820191906000526020600020905b815481529060010190602001808311610f2757829003601f168201915b50505050509350955095509550955095505091939590929450565b606080600080600080600060076000896001600160a01b03166001600160a01b031681526020019081526020016000206040518060e0016040529081600082018054610faa906145a4565b80601f0160208091040260200160405190810160405280929190818152602001828054610fd6906145a4565b80156110235780601f10610ff857610100808354040283529160200191611023565b820191906000526020600020905b81548152906001019060200180831161100657829003601f168201915b5050505050815260200160018201805461103c906145a4565b80601f0160208091040260200160405190810160405280929190818152602001828054611068906145a4565b80156110b55780601f1061108a576101008083540402835291602001916110b5565b820191906000526020600020905b81548152906001019060200180831161109857829003601f168201915b505050918352505060028201546001600160a01b039081166020808401919091526003840154909116604080840191909152600484015460608085019190915260059094015460ff80821660808087019190915261010090920416151560a0948501528551928601519186015194860151908601519590930151919d909c50929a5090985091965090945092505050565b6006818154811061115657600080fd5b6000918252602090912001546001600160a01b0316905081565b6000600a60006111808585613b09565b815260208101919091526040016000205460ff1690505b92915050565b6003546001600160a01b031633146111c75760405162461bcd60e51b8152600401610aef90614622565b60006111d38383613b09565b6000818152600d602052604090819020805460ff19169055519091507fad1876bb331ec429b63ef248e6b6bfc3c55c9a67ce2b5cf975e514a83d804a1c9061121e9085908590614643565b60405180910390a1505050565b6000546001600160a01b031633146112555760405162461bcd60e51b8152600401610aef90614671565b60048190556040518181527faf0b4cfce1d4ccd287e50e3f62fa38f40e5b62dece28eac7f48375a6c70a5003906020015b60405180910390a150565b6000600b60006111808585613b09565b6000600c60006111808585613b09565b6003546001600160a01b031633146112db5760405162461bcd60e51b8152600401610aef90614622565b60006112e78383613b09565b6000818152600a602052604090205490915060ff16156113195760405162461bcd60e51b8152600401610aef90614694565b6000818152600d602052604090205460ff16156113745760405162461bcd60e51b8152602060048201526019602482015278151bdad95b88185b1c9958591e481c5d585c985b9d1a5b9959603a1b6044820152606401610aef565b6000818152600d602052604090819020805460ff19166001179055517f73cb3561ef77bcca525d202a0b737a3c019ac78322ca87f64e44bdeaa6e828bf9061121e9085908590614643565b606080600080600080600e87815481106113db576113db61460c565b90600052602060002090600502016040518060a0016040529081600082018054611404906145a4565b80601f0160208091040260200160405190810160405280929190818152602001828054611430906145a4565b801561147d5780601f106114525761010080835404028352916020019161147d565b820191906000526020600020905b81548152906001019060200180831161146057829003601f168201915b50505050508152602001600182018054611496906145a4565b80601f01602080910402602001604051908101604052809291908181526020018280546114c2906145a4565b801561150f5780601f106114e45761010080835404028352916020019161150f565b820191906000526020600020905b8154815290600101906020018083116114f257829003601f168201915b505050918352505060028201546001600160a01b0390811660208084019190915260038401549091166040808401919091526004909301546060928301528351908401519284015191840151608090940151909b929a5090985091965090945092505050565b6000600d60006111808585613b09565b6003546001600160a01b031633146115af5760405162461bcd60e51b8152600401610aef90614622565b6001600160a01b0384166115d55760405162461bcd60e51b8152600401610aef906146c6565b6001600160a01b038416600090815260076020526040902060050154610100900460ff166116155760405162461bcd60e51b8152600401610aef906145de565b6001600160a01b03841660009081526007602052604081208054909190611751908390611641906145a4565b80601f016020809104026020016040519081016040528092919081815260200182805461166d906145a4565b80156116ba5780601f1061168f576101008083540402835291602001916116ba565b820191906000526020600020905b81548152906001019060200180831161169d57829003601f168201915b50505050508360010180546116ce906145a4565b80601f01602080910402602001604051908101604052809291908181526020018280546116fa906145a4565b80156117475780601f1061171c57610100808354040283529160200191611747565b820191906000526020600020905b81548152906001019060200180831161172a57829003601f168201915b5050505050613b09565b6000818152600a602052604090205490915060ff16156117835760405162461bcd60e51b8152600401610aef90614694565b6000818152600d602052604090205460ff16156117b25760405162461bcd60e51b8152600401610aef906146ed565b600582015460ff908116908616036117dc5760405162461bcd60e51b8152600401610aef90614736565b600582015460ff908116908616116118255760405162461bcd60e51b815260206004820152600c60248201526b4d757374207570677261646560a01b6044820152606401610aef565b8460ff166002036118785760008451116118785760405162461bcd60e51b81526020600482015260146024820152734c6576656c2032206e656564732070726f6f663160601b6044820152606401610aef565b8460ff166003036118dd5760008451118015611895575060008351115b6118dd5760405162461bcd60e51b81526020600482015260196024820152784c6576656c2033206e6565647320626f74682070726f6f667360381b6044820152606401610aef565b60058201805460ff191660ff8716179055600254600383015460405163aa131a6960e01b81526001600160a01b039283169263aa131a6992611926929116908990600401614759565b600060405180830381600087803b15801561194057600080fd5b505af1158015611954573d6000803e3d6000fd5b505050507fd6cc28a396e758b7234f214eabdbc0d4a214c275a0aa769eb64ba41e617e7f8d8686604051611989929190614759565b60405180910390a1505050505050565b600f8181548110610c8b57600080fd5b6007602052600090815260409020805481906119c4906145a4565b80601f01602080910402602001604051908101604052809291908181526020018280546119f0906145a4565b8015611a3d5780601f10611a1257610100808354040283529160200191611a3d565b820191906000526020600020905b815481529060010190602001808311611a2057829003601f168201915b505050505090806001018054611a52906145a4565b80601f0160208091040260200160405190810160405280929190818152602001828054611a7e906145a4565b8015611acb5780601f10611aa057610100808354040283529160200191611acb565b820191906000526020600020905b815481529060010190602001808311611aae57829003601f168201915b5050505060028301546003840154600485015460059095015493946001600160a01b03928316949290911692509060ff8082169161010090041687565b6000546001600160a01b03163314611b325760405162461bcd60e51b8152600401610aef90614671565b60005b8151811015612298576000828281518110611b5257611b5261460c565b6020026020010151905060076000826001600160a01b03166001600160a01b0316815260200190815260200160002060050160019054906101000a900460ff16611b9c5750612286565b6001600160a01b038116600090815260076020526040808220815160e08101909252805482908290611bcd906145a4565b80601f0160208091040260200160405190810160405280929190818152602001828054611bf9906145a4565b8015611c465780601f10611c1b57610100808354040283529160200191611c46565b820191906000526020600020905b815481529060010190602001808311611c2957829003601f168201915b50505050508152602001600182018054611c5f906145a4565b80601f0160208091040260200160405190810160405280929190818152602001828054611c8b906145a4565b8015611cd85780601f10611cad57610100808354040283529160200191611cd8565b820191906000526020600020905b815481529060010190602001808311611cbb57829003601f168201915b505050918352505060028201546001600160a01b03908116602080840191909152600384015490911660408301526004830154606083015260059092015460ff808216608084015261010090910416151560a090910152815190820151919250600091611d459190613b09565b6080830151909150839060005b8751811015611fa2576000888281518110611d6f57611d6f61460c565b60200260200101519050806001600160a01b0316876001600160a01b03161480611dba57506001600160a01b038116600090815260076020526040902060050154610100900460ff16155b15611dc55750611f90565b6001600160a01b038116600090815260076020526040808220815160e08101909252805482908290611df6906145a4565b80601f0160208091040260200160405190810160405280929190818152602001828054611e22906145a4565b8015611e6f5780601f10611e4457610100808354040283529160200191611e6f565b820191906000526020600020905b815481529060010190602001808311611e5257829003601f168201915b50505050508152602001600182018054611e88906145a4565b80601f0160208091040260200160405190810160405280929190818152602001828054611eb4906145a4565b8015611f015780601f10611ed657610100808354040283529160200191611f01565b820191906000526020600020905b815481529060010190602001808311611ee457829003601f168201915b505050918352505060028201546001600160a01b03908116602080840191909152600384015490911660408301526004830154606083015260059092015460ff808216608084015261010090910416151560a0909101528151908201519192508791611f6d9190613b09565b148015611f7d5750838160800151105b15611f8d57819450806080015193505b50505b80611f9a8161478b565b915050611d52565b5060005b875181101561227f576000888281518110611fc357611fc361460c565b60200260200101519050836001600160a01b0316816001600160a01b03161415801561200f57506001600160a01b038116600090815260076020526040902060050154610100900460ff165b1561226c576001600160a01b038116600090815260076020526040808220815160e08101909252805482908290612045906145a4565b80601f0160208091040260200160405190810160405280929190818152602001828054612071906145a4565b80156120be5780601f10612093576101008083540402835291602001916120be565b820191906000526020600020905b8154815290600101906020018083116120a157829003601f168201915b505050505081526020016001820180546120d7906145a4565b80601f0160208091040260200160405190810160405280929190818152602001828054612103906145a4565b80156121505780601f1061212557610100808354040283529160200191612150565b820191906000526020600020905b81548152906001019060200180831161213357829003601f168201915b505050918352505060028201546001600160a01b03908116602080840191909152600384015490911660408301526004830154606083015260059092015460ff808216608084015261010090910416151560a09091015281519082015191925087916121bc9190613b09565b0361226a576001600160a01b0382166000908152600760205260408120906121e48282613d52565b6121f2600183016000613d52565b506002810180546001600160a01b0319908116909155600382018054909116905560006004820155600501805461ffff19169055805160208201516040517f140895cf1e4d3065a52358255d13593961f3ae59458456b28a07624647ab63e792612261929091869033906147a4565b60405180910390a15b505b50806122778161478b565b915050611fa6565b5050505050505b806122908161478b565b915050611b35565b5050565b6060806000806000806000806122b28a8a613b09565b6000818152600960205260409020549091506001600160a01b03168061230b5760405162461bcd60e51b815260206004820152600e60248201526d139bdd081c9959da5cdd195c995960921b6044820152606401610aef565b6001600160a01b038116600090815260076020526040808220815160e0810190925280548290829061233c906145a4565b80601f0160208091040260200160405190810160405280929190818152602001828054612368906145a4565b80156123b55780601f1061238a576101008083540402835291602001916123b5565b820191906000526020600020905b81548152906001019060200180831161239857829003601f168201915b505050505081526020016001820180546123ce906145a4565b80601f01602080910402602001604051908101604052809291908181526020018280546123fa906145a4565b80156124475780601f1061241c57610100808354040283529160200191612447565b820191906000526020600020905b81548152906001019060200180831161242a57829003601f168201915b505050918352505060028201546001600160a01b039081166020808401919091526003840154909116604080840191909152600484015460608085019190915260059094015460ff80821660808087019190915261010090920416151560a0948501528551928601519186015194860151908601519386015160c090960151929f50909d50929b509199509750909550935050505092959891949750929550565b60055460ff16156125305760405162461bcd60e51b8152602060048201526012602482015271149959da5cdd1c9e481a5cc81c185d5cd95960721b6044820152606401610aef565b61253984613b4c565b8015612549575061254983613b4c565b6125925760405162461bcd60e51b815260206004820152601a60248201527913185e595c8c0e8813db9b1e481054d0d25248185b1b1bddd95960321b6044820152606401610aef565b600061259d85612dcb565b905060006125aa85612dcb565b905081805190602001208680519060200120146126015760405162461bcd60e51b8152602060048201526015602482015274098c2f2cae46274409cc2daca40dad2e6dac2e8c6d605b1b6044820152606401610aef565b80805190602001208580519060200120146126585760405162461bcd60e51b8152602060048201526017602482015276098c2f2cae4627440a6f2dac4ded840dad2e6dac2e8c6d604b1b6044820152606401610aef565b60006126648787613b09565b90506000612673888833613ba2565b60008181526008602052604090205490915060ff16156126d05760405162461bcd60e51b815260206004820152601860248201527713185e595c8c8e88119a5b99d95c9c1c9a5b9d081d5cd95960421b6044820152606401610aef565b6000828152600a602052604090205460ff161561272f5760405162461bcd60e51b815260206004820181905260248201527f4c61796572333a20546f6b656e20697320676c6f62616c6c792062616e6e65646044820152606401610aef565b6000828152600b602052604090205460ff16156127835760405162461bcd60e51b815260206004820152601260248201527113185e595c8d0e88111053c818985b9b995960721b6044820152606401610aef565b6000828152600d602052604090205460ff16156127de5760405162461bcd60e51b815260206004820152601960248201527813185e595c8d4e88151bdad95b881c5d585c985b9d1a5b9959603a1b6044820152606401610aef565b6000828152600c602052604090205460ff161561283d5760405162461bcd60e51b815260206004820152601d60248201527f4c61796572363a20537573706963696f7573207375626d697373696f6e0000006044820152606401610aef565b6001600160a01b0386166000908152600760205260409020600401541561289b5760405162461bcd60e51b8152602060048201526012602482015271105b1c9958591e481c9959da5cdd195c995960721b6044820152606401610aef565b336000908152601260205260408120546128b7576016546128c8565b336000908152601260205260409020545b60155433600090815260136020526040902054919250906128ea9083906147ee565b4210156129715733600090815260146020526040902054811161294c5760405162461bcd60e51b815260206004820152601a602482015279526174653a20546f6f206d616e79207375626d697373696f6e7360301b6044820152606401610aef565b3360009081526014602052604081208054916129678361478b565b9190505550612992565b33600090815260146020908152604080832060019055601390915290204290555b600154600480546040516323b872dd60e01b8152339281019290925230602483015260448201526001600160a01b039091169081906323b872dd906064016020604051808303816000875af11580156129ef573d6000803e3d6000fd5b505050506040513d601f19601f82011682018060405250810190612a139190614801565b612a5d5760405162461bcd60e51b815260206004820152601b60248201527a13185e595c8cce88119959481d1c985b9cd9995c8819985a5b1959602a1b6044820152606401610aef565b60048054604051630852cd8d60e31b8152918201526001600160a01b038216906342966c6890602401600060405180830381600087803b158015612aa057600080fd5b505af1158015612ab4573d6000803e3d6000fd5b5050336000908152601060205260408120805493509150612ad48361478b565b90915550506000848152600860209081526040808320805460ff19166001908117909155815160e0810183528f81528084018f90526001600160a01b038e1681840181905233606083015242608083015260ff8e1660a083015260c0820192909252908452600790925290912081518190612b4f9082614881565b5060208201516001820190612b649082614881565b506040828101516002830180546001600160a01b039283166001600160a01b03199182161790915560608501516003850180549184169183169190911790556080850151600485015560a08501516005909401805460c09096015115156101000261ffff1990961660ff90951694909417949094179092556000888152600960209081528282208054948f169490951684179094559182526007909252908120601180546001810182559252906006027f31ecc21a745e3968a04e9570e4425bc18fa8019c68028196b546d1669c200c680180612c41838261493a565b50600181810190612c549084018261493a565b5060028281015482820180546001600160a01b03199081166001600160a01b03938416179091556003808601549085018054909216908316179055600480850154818501556005948501805495909401805460ff19811660ff9788169081178355955461010090819004909716151590960261ffff19909616909417949094179092555460405163aa131a6960e01b815291169163aa131a6991612cfc9133918d9101614759565b600060405180830381600087803b158015612d1657600080fd5b505af1158015612d2a573d6000803e3d6000fd5b5050600680546001810182556000919091527ff652222313e28459528d920b65115c16c04f3efc82aaedc97be59f3f377c0d3f0180546001600160a01b0319166001600160a01b038d169081179091556040513393509091507ff15974449723acc912f27e790578cf79aa433e0f6184b6c1686694accc307c4790612db6908b908b908e904290614a06565b60405180910390a35050505050505050505050565b60606000829050600081516001600160401b03811115612ded57612ded614032565b6040519080825280601f01601f191660200182016040528015612e17576020820181803683370190505b5090506000805b8351811015612f4a576000848281518110612e3b57612e3b61460c565b016020015160f81c905060418110801590612e5a5750605a8160ff1611155b15612ea657612e6a816020614a42565b60f81b8484612e788161478b565b955081518110612e8a57612e8a61460c565b60200101906001600160f81b031916908160001a905350612f37565b60618160ff1610158015612ebe5750607a8160ff1611155b80612edc575060308160ff1610158015612edc575060398160ff1611155b15612f3757848281518110612ef357612ef361460c565b01602001516001600160f81b0319168484612f0d8161478b565b955081518110612f1f57612f1f61460c565b60200101906001600160f81b031916908160001a9053505b5080612f428161478b565b915050612e1e565b506000816001600160401b03811115612f6557612f65614032565b6040519080825280601f01601f191660200182016040528015612f8f576020820181803683370190505b50905060005b82811015612ff557838181518110612faf57612faf61460c565b602001015160f81c60f81b828281518110612fcc57612fcc61460c565b60200101906001600160f81b031916908160001a90535080612fed8161478b565b915050612f95565b5095945050505050565b6000546001600160a01b031633146130295760405162461bcd60e51b8152600401610aef90614671565b805182511461306b5760405162461bcd60e51b815260206004820152600e60248201526d092dce0eae840dad2e6dac2e8c6d60931b6044820152606401610aef565b60005b82518110156131695760006130b584838151811061308e5761308e61460c565b60200260200101518484815181106130a8576130a861460c565b6020026020010151613b09565b6000818152600a602052604090205490915060ff16613156576000818152600a60205260409020805460ff1916600117905583517fc291c6d4ab3f542643aa7f2293e43ee13bcabe58869c421e0759db720a6b3a699085908490811061311d5761311d61460c565b60200260200101518484815181106131375761313761460c565b602002602001015160405161314d929190614643565b60405180910390a15b50806131618161478b565b91505061306e565b505050565b606080600060608060008060076000896001600160a01b03166001600160a01b031681526020019081526020016000206040518060e00160405290816000820180546131b9906145a4565b80601f01602080910402602001604051908101604052809291908181526020018280546131e5906145a4565b80156132325780601f1061320757610100808354040283529160200191613232565b820191906000526020600020905b81548152906001019060200180831161321557829003601f168201915b5050505050815260200160018201805461324b906145a4565b80601f0160208091040260200160405190810160405280929190818152602001828054613277906145a4565b80156132c45780601f10613299576101008083540402835291602001916132c4565b820191906000526020600020905b8154815290600101906020018083116132a757829003601f168201915b505050918352505060028201546001600160a01b03908116602080840191909152600384015490911660408301526004830154606083015260059092015460ff8082166080808501919091526101009092048116151560a0938401528451938501519285015191850151939b5091995097509093509091508516600103613392576040518060400160405280600b81526020016a10985cda58c8151c9d5cdd60aa1b8152509350604051806040016040528060078152602001660234646443730360cc1b81525092506134a0565b8460ff166002036133f05760405180604001604052806011815260200170115e18da185b99d94815995c9a599a5959607a1b8152509350604051806040016040528060078152602001660233030464630360cc1b81525092506134a0565b8460ff16600303613458576040518060400160405280601b81526020017a105d591a5d1959080988115e18da185b99d94815995c9a599a5959602a1b8152509350604051806040016040528060078152602001660233830303038360cc1b81525092506134a0565b6040518060400160405280600a815260200169155b9d995c9a599a595960b21b81525093506040518060400160405280600781526020016611a3232323232360c91b81525092505b5091939550919395565b6003546001600160a01b031633146134d45760405162461bcd60e51b8152600401610aef90614622565b60006134e08484613b09565b6000818152600d602052604090205490915060ff16156135125760405162461bcd60e51b8152600401610aef906146ed565b6000818152600b60209081526040808320805460ff19166001179055600a90915290205460ff16613557576000818152600a60205260409020805460ff191660011790555b60006135638585613be8565b90506001600160a01b0381161580159061359d57506001600160a01b038116600090815260076020526040902060050154610100900460ff165b15613686576040805160a08101825286815260208082018790526001600160a01b0380851683850181905260009081526007909252928120600301549092166060820152426080820152600f80546001810182559252805190916005027f8d1108e10bcb7c27dddfc02ed9d693a074039d026cf4ea4240b40f7d581ac802019081906136299082614881565b506020820151600182019061363e9082614881565b5060408201516002820180546001600160a01b039283166001600160a01b03199182161790915560608401516003840180549190931691161790556080909101516004909101555b82156137645760006136988686613be8565b90506001600160a01b038116158015906136d257506001600160a01b038116600090815260076020526040902060050154610100900460ff165b15613733576001600160a01b038116600090815260076020526040808220600501805460ff19169055517fd6cc28a396e758b7234f214eabdbc0d4a214c275a0aa769eb64ba41e617e7f8d9161372a91849190614759565b60405180910390a15b7f042ffb874034f1979113f697774657344de36c8b35ef916493292920439af4a18686604051611989929190614643565b5050505050565b6000546001600160a01b031633146137955760405162461bcd60e51b8152600401610aef90614671565b6001600160a01b0381166137d95760405162461bcd60e51b815260206004820152600b60248201526a496e76616c69642044414f60a81b6044820152606401610aef565b600380546001600160a01b0319166001600160a01b0383161790556040517f8aad84fcad50e723fa3bcf0fb32c5bea4c71078b77b9aedfa638f146f3a3f7b990611286908390613da8565b6000546001600160a01b0316331461384e5760405162461bcd60e51b8152600401610aef90614671565b6001600160a01b0381166138935760405162461bcd60e51b815260206004820152600c60248201526b5a65726f206164647265737360a01b6044820152606401610aef565b600080546040516001600160a01b03808516939216917f8be0079c531659141344cd1fd0a4f28419497f9722a3daafe3b4186f6b6457e091a3600080546001600160a01b0319166001600160a01b0392909216919091179055565b6003546001600160a01b031633146139185760405162461bcd60e51b8152600401610aef90614622565b6001600160a01b03841661393e5760405162461bcd60e51b8152600401610aef906146c6565b6001600160a01b038416600090815260076020526040902060050154610100900460ff1661397e5760405162461bcd60e51b8152600401610aef906145de565b6001600160a01b038416600090815260076020526040812080549091906139aa908390611641906145a4565b6000818152600a602052604090205490915060ff16156139dc5760405162461bcd60e51b8152600401610aef90614694565b6000818152600d602052604090205460ff1615613a0b5760405162461bcd60e51b8152600401610aef906146ed565b600582015460ff90811690861603613a355760405162461bcd60e51b8152600401610aef90614736565b600582015460ff90811690861610613a805760405162461bcd60e51b815260206004820152600e60248201526d4d75737420646f776e677261646560901b6044820152606401610aef565b8460ff166002036118dd5760008451116118dd5760405162461bcd60e51b8152602060048201526017602482015276546f204c6576656c2032206e656564732070726f6f663160481b6044820152606401610aef565b60118181548110613ae657600080fd5b90600052602060002090600602016000915090508060000180546119c4906145a4565b6000613b1483612dcb565b613b1d83612dcb565b604051602001613b2e929190614a5b565b60405160208183030381529060405280519060200120905092915050565b600081815b8151811015613b9857607f828281518110613b6e57613b6e61460c565b016020015160f81c1115613b86575060009392505050565b80613b908161478b565b915050613b51565b5060019392505050565b6000613bad84612dcb565b613bb684612dcb565b83604051602001613bc993929190614a8a565b6040516020818303038152906040528051906020012090509392505050565b600080613bf58484613b09565b905060005b600654811015613d4757600060068281548110613c1957613c1961460c565b60009182526020808320909101546001600160a01b0316808352600790915260409091206005015490915060ff610100909104168015613d2557506001600160a01b038116600090815260076020526040902080548491613d2391613c7d906145a4565b80601f0160208091040260200160405190810160405280929190818152602001828054613ca9906145a4565b8015613cf65780601f10613ccb57610100808354040283529160200191613cf6565b820191906000526020600020905b815481529060010190602001808311613cd957829003601f168201915b5050506001600160a01b038616600090815260076020526040902060010180549092506116ce91506145a4565b145b15613d34579250611197915050565b5080613d3f8161478b565b915050613bfa565b506000949350505050565b508054613d5e906145a4565b6000825580601f10613d6e575050565b601f016020900490600052602060002090810190613d8c9190613d8f565b50565b5b80821115613da45760008155600101613d90565b5090565b6001600160a01b0391909116815260200190565b60005b83811015613dd7578181015183820152602001613dbf565b50506000910152565b60008151808452613df8816020860160208601613dbc565b601f01601f19169290920160200192915050565b60006020808301818452808551808352604092508286019150828160051b87010184880160005b83811015613eca57603f19898403018552815160e08151818652613e5982870182613de0565b915050888201518582038a870152613e718282613de0565b838a01516001600160a01b03908116888c0152606080860151909116908801526080808501519088015260a08085015160ff169088015260c0938401511515939096019290925250509386019390860190600101613e33565b509098975050505050505050565b80356001600160a01b0381168114613eef57600080fd5b919050565b600060208284031215613f0657600080fd5b613f0f82613ed8565b9392505050565b60a081526000613f2960a0830188613de0565b8281036020840152613f3b8188613de0565b905060ff861660408401528281036060840152613f588186613de0565b90508281036080840152613f6c8185613de0565b98975050505050505050565b600060208284031215613f8a57600080fd5b5035919050565b60a081526000613fa460a0830188613de0565b8281036020840152613fb68188613de0565b6001600160a01b03968716604085015294909516606083015250608001529392505050565b60c081526000613fee60c0830189613de0565b82810360208401526140008189613de0565b6001600160a01b03978816604085015295909616606083015250608081019290925260ff1660a0909101529392505050565b634e487b7160e01b600052604160045260246000fd5b604051601f8201601f191681016001600160401b038111828210171561407057614070614032565b604052919050565b600082601f83011261408957600080fd5b81356001600160401b038111156140a2576140a2614032565b6140b5601f8201601f1916602001614048565b8181528460208386010111156140ca57600080fd5b816020850160208301376000918101602001919091529392505050565b600080604083850312156140fa57600080fd5b82356001600160401b038082111561411157600080fd5b61411d86838701614078565b9350602085013591508082111561413357600080fd5b5061414085828601614078565b9150509250929050565b803560ff81168114613eef57600080fd5b6000806000806080858703121561417157600080fd5b61417a85613ed8565b93506141886020860161414a565b925060408501356001600160401b03808211156141a457600080fd5b6141b088838901614078565b935060608701359150808211156141c657600080fd5b506141d387828801614078565b91505092959194509250565b60e0815260006141f260e083018a613de0565b8281036020840152614204818a613de0565b6001600160a01b03988916604085015296909716606083015250608081019390935260ff9190911660a0830152151560c0909101529392505050565b60006001600160401b0382111561425957614259614032565b5060051b60200190565b6000602080838503121561427657600080fd5b82356001600160401b0381111561428c57600080fd5b8301601f8101851361429d57600080fd5b80356142b06142ab82614240565b614048565b81815260059190911b820183019083810190878311156142cf57600080fd5b928401925b828410156142f4576142e584613ed8565b825292840192908401906142d4565b979650505050505050565b6000806000806080858703121561431557600080fd5b84356001600160401b038082111561432c57600080fd5b61433888838901614078565b9550602087013591508082111561434e57600080fd5b5061435b87828801614078565b93505061436a60408601613ed8565b91506143786060860161414a565b905092959194509250565b60006020828403121561439557600080fd5b81356001600160401b038111156143ab57600080fd5b6143b784828501614078565b949350505050565b602081526000613f0f6020830184613de0565b600082601f8301126143e357600080fd5b813560206143f36142ab83614240565b82815260059290921b8401810191818101908684111561441257600080fd5b8286015b848110156144515780356001600160401b038111156144355760008081fd5b6144438986838b0101614078565b845250918301918301614416565b509695505050505050565b6000806040838503121561446f57600080fd5b82356001600160401b038082111561448657600080fd5b614492868387016143d2565b935060208501359150808211156144a857600080fd5b50614140858286016143d2565b60c0815260006144c860c0830189613de0565b82810360208401526144da8189613de0565b905060ff8716604084015282810360608401526144f78187613de0565b9050828103608084015261450b8186613de0565b9150508260a0830152979650505050505050565b8015158114613d8c57600080fd5b60008060006060848603121561454257600080fd5b83356001600160401b038082111561455957600080fd5b61456587838801614078565b9450602086013591508082111561457b57600080fd5b5061458886828701614078565b92505060408401356145998161451f565b809150509250925092565b600181811c908216806145b857607f821691505b6020821081036145d857634e487b7160e01b600052602260045260246000fd5b50919050565b602080825260149082015273151bdad95b881b9bdd081c9959da5cdd195c995960621b604082015260600190565b634e487b7160e01b600052603260045260246000fd5b6020808252600790820152664e6f742044414f60c81b604082015260600190565b6040815260006146566040830185613de0565b82810360208401526146688185613de0565b95945050505050565b6020808252600990820152682737ba1037bbb732b960b91b604082015260600190565b602080825260189082015277151bdad95b881a5cc819db1bd8985b1b1e4818985b9b995960421b604082015260600190565b6020808252600d908201526c24b73b30b634b2103a37b5b2b760991b604082015260600190565b60208082526029908201527f546f6b656e2069732071756172616e74696e6564202d20756e71756172616e746040820152681a5b9948199a5c9cdd60ba1b606082015260800190565b6020808252600990820152684e6f206368616e676560b81b604082015260600190565b6001600160a01b0392909216825260ff16602082015260400190565b634e487b7160e01b600052601160045260246000fd5b60006001820161479d5761479d614775565b5060010190565b6080815260006147b76080830187613de0565b82810360208401526147c98187613de0565b6001600160a01b03958616604085015293909416606090920191909152509392505050565b8082018082111561119757611197614775565b60006020828403121561481357600080fd5b8151613f0f8161451f565b601f82111561316957600081815260208120601f850160051c810160208610156148455750805b601f850160051c820191505b8181101561486457828155600101614851565b505050505050565b600019600383901b1c191660019190911b1790565b81516001600160401b0381111561489a5761489a614032565b6148ae816148a884546145a4565b8461481e565b602080601f8311600181146148dd57600084156148cb5750858301515b6148d5858261486c565b865550614864565b600085815260208120601f198616915b8281101561490c578886015182559484019460019091019084016148ed565b508582101561492a5787850151600019600388901b60f8161c191681555b5050505050600190811b01905550565b818103614945575050565b61494f82546145a4565b6001600160401b0381111561496657614966614032565b614974816148a884546145a4565b6000601f8211600181146149a257600083156149905750848201545b61499a848261486c565b855550613764565b600085815260209020601f19841690600086815260209020845b838110156149dc57828601548255600195860195909101906020016149bc565b508583101561492a5793015460001960f8600387901b161c19169092555050600190811b01905550565b608081526000614a196080830187613de0565b8281036020840152614a2b8187613de0565b60ff95909516604084015250506060015292915050565b60ff818116838216019081111561119757611197614775565b60008351614a6d818460208801613dbc565b835190830190614a81818360208801613dbc565b01949350505050565b60008451614a9c818460208901613dbc565b845190830190614ab0818360208901613dbc565b60609490941b6001600160601b031916930192835250506014019291505056fea264697066735822122067d5889b787739da775bb4531264eeb87e8df34f327c1035f694ab966c02be1464736f6c63430008140033",
  "linkReferences": {},
  "deployedLinkReferences": {}
}