{
  "_format": "hh-sol-artifact-1",
  "contractName": "TPNToken",
  "sourceName": "contracts/TPNToken.sol",
  "abi": [
    {
      "inputs": [
        {
          "internalType": "string",
          "name": "name_",
          "type": "string"
        },
        {
          "internalType": "string",
          "name": "symbol_",
          "type": "string"
        },
        {
          "internalType": "uint8",
          "name": "decimals_",
          "type": "uint8"
        },
        {
          "internalType": "uint256",
          "name": "initialSupply_",
          "type": "uint256"
        },
        {
          "internalType": "address",
          "name": "owner_",
          "type": "address"
        }
      ],
      "stateMutability": "nonpayable",
      "type": "constructor"
    },
    {
      "anonymous": false,
      "inputs": [
        {
          "indexed": true,
          "internalType": "address",
          "name": "owner",
          "type": "address"
        },
        {
          "indexed": true,
          "internalType": "address",
          "name": "spender",
          "type": "address"
        },
        {
          "indexed": false,
          "internalType": "uint256",
          "name": "value",
          "type": "uint256"
        }
      ],
      "name": "Approval",
      "type": "event"
    },
    {
      "anonymous": false,
      "inputs": [
        {
          "indexed": true,
          "internalType": "address",
          "name": "previousOwner",
          "type": "address"
        },
        {
          "indexed": true,
          "internalType": "address",
          "name": "newOwner",
          "type": "address"
        }
      ],
      "name": "OwnershipTransferred",
      "type": "event"
    },
    {
      "anonymous": false,
      "inputs": [
        {
          "indexed": true,
          "internalType": "address",
          "name": "from",
          "type": "address"
        },
        {
          "indexed": true,
          "internalType": "address",
          "name": "to",
          "type": "address"
        },
        {
          "indexed": false,
          "internalType": "uint256",
          "name": "value",
          "type": "uint256"
        }
      ],
      "name": "Transfer",
      "type": "event"
    },
    {
      "inputs": [
        {
          "internalType": "address",
          "name": "owner",
          "type": "address"
        },
        {
          "internalType": "address",
          "name": "spender",
          "type": "address"
        }
      ],
      "name": "allowance",
      "outputs": [
        {
          "internalType": "uint256",
          "name": "",
          "type": "uint256"
        }
      ],
      "stateMutability": "view",
      "type": "function"
    },
    {
      "inputs": [
        {
          "internalType": "address",
          "name": "spender",
          "type": "address"
        },
        {
          "internalType": "uint256",
          "name": "amount",
          "type": "uint256"
        }
      ],
      "name": "approve",
      "outputs": [
        {
          "internalType": "bool",
          "name": "",
          "type": "bool"
        }
      ],
      "stateMutability": "nonpayable",
      "type": "function"
    },
    {
      "inputs": [
        {
          "internalType": "address",
          "name": "account",
          "type": "address"
        }
      ],
      "name": "balanceOf",
      "outputs": [
        {
          "internalType": "uint256",
          "name": "",
          "type": "uint256"
        }
      ],
      "stateMutability": "view",
      "type": "function"
    },
    {
      "inputs": [
        {
          "internalType": "uint256",
          "name": "amount",
          "type": "uint256"
        }
      ],
      "name": "burn",
      "outputs": [],
      "stateMutability": "nonpayable",
      "type": "function"
    },
    {
      "inputs": [
        {
          "internalType": "address",
          "name": "account",
          "type": "address"
        },
        {
          "internalType": "uint256",
          "name": "amount",
          "type": "uint256"
        }
      ],
      "name": "burnFrom",
      "outputs": [],
      "stateMutability": "nonpayable",
      "type": "function"
    },
    {
      "inputs": [],
      "name": "decimals",
      "outputs": [
        {
          "internalType": "uint8",
          "name": "",
          "type": "uint8"
        }
      ],
      "stateMutability": "view",
      "type": "function"
    },
    {
      "inputs": [
        {
          "internalType": "address",
          "name": "spender",
          "type": "address"
        },
        {
          "internalType": "uint256",
          "name": "subtractedValue",
          "type": "uint256"
        }
      ],
      "name": "decreaseAllowance",
      "outputs": [
        {
          "internalType": "bool",
          "name": "",
          "type": "bool"
        }
      ],
      "stateMutability": "nonpayable",
      "type": "function"
    },
    {
      "inputs": [
        {
          "internalType": "address",
          "name": "spender",
          "type": "address"
        },
        {
          "internalType": "uint256",
          "name": "addedValue",
          "type": "uint256"
        }
      ],
      "name": "increaseAllowance",
      "outputs": [
        {
          "internalType": "bool",
          "name": "",
          "type": "bool"
        }
      ],
      "stateMutability": "nonpayable",
      "type": "function"
    },
    {
      "inputs": [
        {
          "internalType": "address",
          "name": "to",
          "type": "address"
        },
        {
          "internalType": "uint256",
          "name": "amount",
          "type": "uint256"
        }
      ],
      "name": "mint",
      "outputs": [],
      "stateMutability": "nonpayable",
      "type": "function"
    },
    {
      "inputs": [],
      "name": "name",
      "outputs": [
        {
          "internalType": "string",
          "name": "",
          "type": "string"
        }
      ],
      "stateMutability": "view",
      "type": "function"
    },
    {
      "inputs": [],
      "name": "owner",
      "outputs": [
        {
          "internalType": "address",
          "name": "",
          "type": "address"
        }
      ],
      "stateMutability": "view",
      "type": "function"
    },
    {
      "inputs": [],
      "name": "renounceOwnership",
      "outputs": [],
      "stateMutability": "nonpayable",
      "type": "function"
    },
    {
      "inputs": [],
      "name": "symbol",
      "outputs": [
        {
          "internalType": "string",
          "name": "",
          "type": "string"
        }
      ],
      "stateMutability": "view",
      "type": "function"
    },
    {
      "inputs": [],
      "name": "totalSupply",
      "outputs": [
        {
          "internalType": "uint256",
          "name": "",
          "type": "uint256"
        }
      ],
      "stateMutability": "view",
      "type": "function"
    },
    {
      "inputs": [
        {
          "internalType": "address",
          "name": "to",
          "type": "address"
        },
        {
          "internalType": "uint256",
          "name": "amount",
          "type": "uint256"
        }
      ],
      "name": "transfer",
      "outputs": [
        {
          "internalType": "bool",
          "name": "",
          "type": "bool"
        }
      ],
      "stateMutability": "nonpayable",
      "type": "function"
    },
    {
      "inputs": [
        {
          "internalType": "address",
          "name": "from",
          "type": "address"
        },
        {
          "internalType": "address",
          "name": "to",
          "type": "address"
        },
        {
          "internalType": "uint256",
          "name": "amount",
          "type": "uint256"
        }
      ],
      "name": "transferFrom",
      "outputs": [
        {
          "internalType": "bool",
          "name": "",
          "type": "bool"
        }
      ],
      "stateMutability": "nonpayable",
      "type": "function"
    },
    {
      "inputs": [
        {
          "internalType": "address",
          "name": "newOwner",
          "type": "address"
        }
      ],
      "name": "transferOwnership",
      "outputs": [],
      "stateMutability": "nonpayable",
      "type": "function"
    }
  ],
  "bytecode": "0x60a0604052346200043157620011ca803803806200001d8162000436565b92833981019060a081830312620004315780516001600160401b039190828111620004315783620000509183016200045c565b90602093848201519084821162000431576200006e9183016200045c565b60408201519360ff8516850362000431576060830151608090930151946001600160a01b0386169485870362000431578051928084116200032b5760038054946001938487811c9716801562000426575b8c881014620004105781908c601f98898111620003b7575b50508c908d8984116001146200034d575060009262000341575b505060001982841b1c191690841b1781555b85519182116200032b5760049586548481811c9116801562000320575b8c8210146200030b5780878d9211620002be575b50508a908684116001146200024f5793839491849260009562000243575b50501b92600019911b1c19161783555b6200016d33620004ce565b608052831562000200575060025490828201809211620001eb5750620001d2946000927fddf252ad1be2c89b69c2b068fc378daa952ba7f163c4a11628f55a4df523b3ef9260025584845283825260408420818154019055604051908152a3620004ce565b604051610cb29081620005188239608051816105fa0152f35b601190634e487b7160e01b6000525260246000fd5b60405162461bcd60e51b815291820186905260248201527f45524332303a206d696e7420746f20746865207a65726f206164647265737300604482015260649150fd5b01519350388062000152565b908b929184601f1981168a60005285600020956000905b89838310620002a3575050501062000288575b50505050811b01835562000162565b01519060f884600019921b161c191690553880808062000279565b85870151895590970196948501948893509081019062000266565b8860005287826000209181870160051c830193871062000301575b0160051c019085905b828110620002f457508c915062000134565b60008155018590620002e2565b92508192620002d9565b602288634e487b7160e01b6000525260246000fd5b90607f169062000120565b634e487b7160e01b600052604160045260246000fd5b015190503880620000f1565b9190879450601f1984168660005283600020936000905b8282106200039d575050841162000384575b505050811b01815562000103565b015160001983861b60f8161c1916905538808062000376565b8484015186558a9790950194938401939081019062000364565b909192508460005288826000209181860160051c830193861062000406575b918891869594930160051c01915b828110620003f657508e9150620000d7565b60008155859450889101620003e4565b92508192620003d6565b634e487b7160e01b600052602260045260246000fd5b96607f1696620000bf565b600080fd5b6040519190601f01601f191682016001600160401b038111838210176200032b57604052565b919080601f84011215620004315782516001600160401b0381116200032b5760209062000492601f8201601f1916830162000436565b92818452828287010111620004315760005b818110620004ba57508260009394955001015290565b8581018301518482018401528201620004a4565b600580546001600160a01b039283166001600160a01b0319821681179092559091167f8be0079c531659141344cd1fd0a4f28419497f9722a3daafe3b4186f6b6457e0600080a356fe6080604081815260048036101561001557600080fd5b600092833560e01c90816306fdde03146106a457508063095ea7b31461067a57806318160ddd1461065b57806323b872dd1461061e578063313ce567146105e0578063395093511461059057806340c10f19146104dc57806342966c68146104be57806370a0823114610487578063715018a61461042a57806379cc6790146103f75780638da5cb5b146103ce57806395d89b41146102cb578063a457c2d714610224578063a9059cbb146101f3578063dd62ed3e146101a65763f2fde38b146100de57600080fd5b346101a25760203660031901126101a2576100f76107c5565b906101006107f6565b6001600160a01b03918216928315610150575050600580546001600160a01b031981168417909155167f8be0079c531659141344cd1fd0a4f28419497f9722a3daafe3b4186f6b6457e08380a380f35b906020608492519162461bcd60e51b8352820152602660248201527f4f776e61626c653a206e6577206f776e657220697320746865207a65726f206160448201526564647265737360d01b6064820152fd5b8280fd5b5050346101ef57806003193601126101ef57806020926101c46107c5565b6101cc6107e0565b6001600160a01b0391821683526001865283832091168252845220549051908152f35b5080fd5b5050346101ef57806003193601126101ef5760209061021d6102136107c5565b6024359033610871565b5160018152f35b5082346102c857826003193601126102c85761023e6107c5565b918360243592338152600160205281812060018060a01b03861682526020522054908282106102775760208561021d85850387336109cd565b608490602086519162461bcd60e51b8352820152602560248201527f45524332303a2064656372656173656420616c6c6f77616e63652062656c6f77604482015264207a65726f60d81b6064820152fd5b80fd5b509190346101ef57816003193601126101ef57805190828454600181811c908083169283156103c4575b60209384841081146103b157838852908115610395575060011461035d575b505050829003601f01601f191682019267ffffffffffffffff84118385101761034a575082918261034692528261077c565b0390f35b634e487b7160e01b815260418552602490fd5b919250868652828620918387935b8385106103815750505050830101388080610314565b80548886018301529301928490820161036b565b60ff1916878501525050151560051b8401019050388080610314565b634e487b7160e01b895260228a52602489fd5b91607f16916102f5565b5050346101ef57816003193601126101ef5760055490516001600160a01b039091168152602090f35b5050346101ef573660031901126102c8576104276104136107c5565b60243590610422823383610acf565b610b67565b80f35b83346102c857806003193601126102c8576104436107f6565b600580546001600160a01b0319811690915581906001600160a01b03167f8be0079c531659141344cd1fd0a4f28419497f9722a3daafe3b4186f6b6457e08280a380f35b5050346101ef5760203660031901126101ef5760209181906001600160a01b036104af6107c5565b16815280845220549051908152f35b8382346101ef5760203660031901126101ef57610427903533610b67565b5090346101a257806003193601126101a2576104f66107c5565b90602435916105036107f6565b6001600160a01b031692831561054e5750602082600080516020610c5d83398151915292610534879560025461084e565b60025585855284835280852082815401905551908152a380f35b6020606492519162461bcd60e51b8352820152601f60248201527f45524332303a206d696e7420746f20746865207a65726f2061646472657373006044820152fd5b5050346101ef57806003193601126101ef5761021d6020926105d96105b36107c5565b338352600186528483206001600160a01b0382168452865291849020546024359061084e565b90336109cd565b5050346101ef57816003193601126101ef576020905160ff7f0000000000000000000000000000000000000000000000000000000000000000168152f35b5050346101ef5760603660031901126101ef5760209061021d61063f6107c5565b6106476107e0565b60443591610656833383610acf565b610871565b5050346101ef57816003193601126101ef576020906002549051908152f35b5050346101ef57806003193601126101ef5760209061021d61069a6107c5565b60243590336109cd565b84915083346101a257826003193601126101a25782600354600181811c90808316928315610772575b60209384841081146103b157838852908115610756575060011461071d57505050829003601f01601f191682019267ffffffffffffffff84118385101761034a575082918261034692528261077c565b91925060038652828620918387935b8385106107425750505050830101858080610314565b80548886018301529301928490820161072c565b60ff1916878501525050151560051b8401019050858080610314565b91607f16916106cd565b6020808252825181830181905290939260005b8281106107b157505060409293506000838284010152601f8019910116010190565b81810186015184820160400152850161078f565b600435906001600160a01b03821682036107db57565b600080fd5b602435906001600160a01b03821682036107db57565b6005546001600160a01b0316330361080a57565b606460405162461bcd60e51b815260206004820152602060248201527f4f776e61626c653a2063616c6c6572206973206e6f7420746865206f776e65726044820152fd5b9190820180921161085b57565b634e487b7160e01b600052601160045260246000fd5b6001600160a01b0390811691821561097a5716918215610929576000828152806020526040812054918083106108d55760408282600080516020610c5d833981519152958760209652828652038282205586815220818154019055604051908152a3565b60405162461bcd60e51b815260206004820152602660248201527f45524332303a207472616e7366657220616d6f756e7420657863656564732062604482015265616c616e636560d01b6064820152608490fd5b60405162461bcd60e51b815260206004820152602360248201527f45524332303a207472616e7366657220746f20746865207a65726f206164647260448201526265737360e81b6064820152608490fd5b60405162461bcd60e51b815260206004820152602560248201527f45524332303a207472616e736665722066726f6d20746865207a65726f206164604482015264647265737360d81b6064820152608490fd5b6001600160a01b03908116918215610a7e5716918215610a2e5760207f8c5be1e5ebec7d5bd14f71427d1e84f3dd0314c0f7b2291e5b200ac8c7c3b925918360005260018252604060002085600052825280604060002055604051908152a3565b60405162461bcd60e51b815260206004820152602260248201527f45524332303a20617070726f766520746f20746865207a65726f206164647265604482015261737360f01b6064820152608490fd5b60405162461bcd60e51b8152602060048201526024808201527f45524332303a20617070726f76652066726f6d20746865207a65726f206164646044820152637265737360e01b6064820152608490fd5b9060018060a01b0380831660005260016020526040600020908216600052602052604060002054926000198403610b07575b50505050565b808410610b2257610b199303916109cd565b38808080610b01565b60405162461bcd60e51b815260206004820152601d60248201527f45524332303a20696e73756666696369656e7420616c6c6f77616e63650000006044820152606490fd5b6001600160a01b03168015610c0d57600091818352826020526040832054818110610bbd5781600080516020610c5d833981519152926020928587528684520360408620558060025403600255604051908152a3565b60405162461bcd60e51b815260206004820152602260248201527f45524332303a206275726e20616d6f756e7420657863656564732062616c616e604482015261636560f01b6064820152608490fd5b60405162461bcd60e51b815260206004820152602160248201527f45524332303a206275726e2066726f6d20746865207a65726f206164647265736044820152607360f81b6064820152608490fdfeddf252ad1be2c89b69c2b068fc378daa952ba7f163c4a11628f55a4df523b3efa26469706673582212204b22d8f87f10e90781ecf92bcf0a42bd7aa0f794b8524fc9bc3d6db40745d90564736f6c63430008140033",
  "linkReferences": {},
  "deployedLinkReferences": {}
}