{
  "_format": "hh-sol-artifact-1",
  "contractName": "TokenRegistry",
  "sourceName": "contracts/TokenRegistry.sol",
  "abi": [
    {
      "inputs": [
        {
          "internalType": "address",
          "name": "_tpnTokenAddress",
          "type": "address"
        },
        {
          "internalType": "address",
          "name": "_badgeNFTAddress",
          "type": "address"
        },
        {
          "internalType": "address",
          "name": "_customOwner",
          "type": "address"
        }
      ],
      "stateMutability": "nonpayable",
      "type": "constructor"
    },
    {
      "anonymous": false,
      "inputs": [
        {
          "indexed": false,
          "internalType": "address",
          "name": "tokenAddress",
          "type": "address"
        },
        {
          "indexed": false,
          "internalType": "uint8",
          "name": "newLevel",
          "type": "uint8"
        }
      ],
      "name": "BadgeLevelUpdated",
      "type": "event"
    },
    {
      "anonymous": false,
      "inputs": [
        {
          "indexed": false,
          "internalType": "string",
          "name": "name",
          "type": "string"
        },
        {
          "indexed": false,
          "internalType": "string",
          "name": "symbol",
          "type": "string"
        }
      ],
      "name": "DAOBanApplied",
      "type": "event"
    },
    {
      "anonymous": false,
      "inputs": [
        {
          "indexed": false,
          "internalType": "address",
          "name": "newDAO",
          "type": "address"
        }
      ],
      "name": "DAOSet",
      "type": "event"
    },
    {
      "anonymous": false,
      "inputs": [
        {
          "indexed": false,
          "internalType": "uint256",
          "name": "newFee",
          "type": "uint256"
        }
      ],
      "name": "MinFeeUpdated",
      "type": "event"
    },
    {
      "anonymous": false,
      "inputs": [
        {
          "indexed": true,
          "internalType": "address",
          "name": "previousOwner",
          "type": "address"
        },
        {
          "indexed": true,
          "internalType": "address",
          "name": "newOwner",
          "type": "address"
        }
      ],
      "name": "OwnershipTransferred",
      "type": "event"
    },
    {
      "anonymous": false,
      "inputs": [],
      "name": "RegistryPaused",
      "type": "event"
    },
    {
      "anonymous": false,
      "inputs": [],
      "name": "RegistryUnpaused",
      "type": "event"
    },
    {
      "anonymous": false,
      "inputs": [
        {
          "indexed": false,
          "internalType": "string",
          "name": "name",
          "type": "string"
        },
        {
          "indexed": false,
          "internalType": "string",
          "name": "symbol",
          "type": "string"
        },
        {
          "indexed": false,
          "internalType": "address",
          "name": "removedToken",
          "type": "address"
        },
        {
          "indexed": false,
          "internalType": "address",
          "name": "keeper",
          "type": "address"
        }
      ],
      "name": "SelfHealTriggered",
      "type": "event"
    },
    {
      "anonymous": false,
      "inputs": [
        {
          "indexed": false,
          "internalType": "string",
          "name": "name",
          "type": "string"
        },
        {
          "indexed": false,
          "internalType": "string",
          "name": "symbol",
          "type": "string"
        }
      ],
      "name": "TokenGloballyBanned",
      "type": "event"
    },
    {
      "anonymous": false,
      "inputs": [
        {
          "indexed": false,
          "internalType": "string",
          "name": "name",
          "type": "string"
        },
        {
          "indexed": false,
          "internalType": "string",
          "name": "symbol",
          "type": "string"
        }
      ],
      "name": "TokenQuarantined",
      "type": "event"
    },
    {
      "anonymous": false,
      "inputs": [
        {
          "indexed": false,
          "internalType": "string",
          "name": "name",
          "type": "string"
        },
        {
          "indexed": false,
          "internalType": "string",
          "name": "symbol",
          "type": "string"
        },
        {
          "indexed": false,
          "internalType": "address",
          "name": "tokenAddress",
          "type": "address"
        },
        {
          "indexed": false,
          "internalType": "address",
          "name": "creator",
          "type": "address"
        },
        {
          "indexed": false,
          "internalType": "uint256",
          "name": "timestamp",
          "type": "uint256"
        }
      ],
      "name": "TokenRegistered",
      "type": "event"
    },
    {
      "anonymous": false,
      "inputs": [
        {
          "indexed": false,
          "internalType": "bytes32",
          "name": "nameSymbolHash",
          "type": "bytes32"
        },
        {
          "indexed": false,
          "internalType": "address",
          "name": "tokenAddress",
          "type": "address"
        },
        {
          "indexed": true,
          "internalType": "address",
          "name": "creator",
          "type": "address"
        },
        {
          "indexed": false,
          "internalType": "uint8",
          "name": "trustLevel",
          "type": "uint8"
        }
      ],
      "name": "TokenRegisteredCompressed",
      "type": "event"
    },
    {
      "anonymous": false,
      "inputs": [
        {
          "indexed": false,
          "internalType": "string",
          "name": "name",
          "type": "string"
        },
        {
          "indexed": false,
          "internalType": "string",
          "name": "symbol",
          "type": "string"
        }
      ],
      "name": "TokenUnbanned",
      "type": "event"
    },
    {
      "anonymous": false,
      "inputs": [
        {
          "indexed": false,
          "internalType": "string",
          "name": "name",
          "type": "string"
        },
        {
          "indexed": false,
          "internalType": "string",
          "name": "symbol",
          "type": "string"
        }
      ],
      "name": "TokenUnquarantined",
      "type": "event"
    },
    {
      "inputs": [
        {
          "internalType": "string",
          "name": "domain",
          "type": "string"
        }
      ],
      "name": "addTrustedAuditor",
      "outputs": [],
      "stateMutability": "nonpayable",
      "type": "function"
    },
    {
      "inputs": [
        {
          "internalType": "string",
          "name": "domain",
          "type": "string"
        }
      ],
      "name": "addTrustedExchange",
      "outputs": [],
      "stateMutability": "nonpayable",
      "type": "function"
    },
    {
      "inputs": [
        {
          "internalType": "uint256",
          "name": "",
          "type": "uint256"
        }
      ],
      "name": "allRegisteredTokens",
      "outputs": [
        {
          "internalType": "address",
          "name": "",
          "type": "address"
        }
      ],
      "stateMutability": "view",
      "type": "function"
    },
    {
      "inputs": [
        {
          "internalType": "string",
          "name": "",
          "type": "string"
        }
      ],
      "name": "allowedAuditors",
      "outputs": [
        {
          "internalType": "bool",
          "name": "",
          "type": "bool"
        }
      ],
      "stateMutability": "view",
      "type": "function"
    },
    {
      "inputs": [
        {
          "internalType": "string",
          "name": "",
          "type": "string"
        }
      ],
      "name": "allowedExchanges",
      "outputs": [
        {
          "internalType": "bool",
          "name": "",
          "type": "bool"
        }
      ],
      "stateMutability": "view",
      "type": "function"
    },
    {
      "inputs": [],
      "name": "badgeNFTAddress",
      "outputs": [
        {
          "internalType": "address",
          "name": "",
          "type": "address"
        }
      ],
      "stateMutability": "view",
      "type": "function"
    },
    {
      "inputs": [
        {
          "internalType": "string[]",
          "name": "names",
          "type": "string[]"
        },
        {
          "internalType": "string[]",
          "name": "symbols",
          "type": "string[]"
        }
      ],
      "name": "batchBanTokens",
      "outputs": [],
      "stateMutability": "nonpayable",
      "type": "function"
    },
    {
      "inputs": [
        {
          "internalType": "address",
          "name": "",
          "type": "address"
        }
      ],
      "name": "creatorSubmissionCount",
      "outputs": [
        {
          "internalType": "uint256",
          "name": "",
          "type": "uint256"
        }
      ],
      "stateMutability": "view",
      "type": "function"
    },
    {
      "inputs": [
        {
          "internalType": "address",
          "name": "",
          "type": "address"
        }
      ],
      "name": "customCooldowns",
      "outputs": [
        {
          "internalType": "uint256",
          "name": "",
          "type": "uint256"
        }
      ],
      "stateMutability": "view",
      "type": "function"
    },
    {
      "inputs": [],
      "name": "dao",
      "outputs": [
        {
          "internalType": "address",
          "name": "",
          "type": "address"
        }
      ],
      "stateMutability": "view",
      "type": "function"
    },
    {
      "inputs": [
        {
          "internalType": "string",
          "name": "name",
          "type": "string"
        },
        {
          "internalType": "string",
          "name": "symbol",
          "type": "string"
        },
        {
          "internalType": "bool",
          "name": "stripBadge",
          "type": "bool"
        }
      ],
      "name": "daoBan",
      "outputs": [],
      "stateMutability": "nonpayable",
      "type": "function"
    },
    {
      "inputs": [
        {
          "internalType": "uint256",
          "name": "",
          "type": "uint256"
        }
      ],
      "name": "daoBanLogbook",
      "outputs": [
        {
          "internalType": "string",
          "name": "name",
          "type": "string"
        },
        {
          "internalType": "string",
          "name": "symbol",
          "type": "string"
        },
        {
          "internalType": "address",
          "name": "tokenAddress",
          "type": "address"
        },
        {
          "internalType": "address",
          "name": "registeredBy",
          "type": "address"
        },
        {
          "internalType": "uint256",
          "name": "timestamp",
          "type": "uint256"
        }
      ],
      "stateMutability": "view",
      "type": "function"
    },
    {
      "inputs": [
        {
          "internalType": "address",
          "name": "token",
          "type": "address"
        },
        {
          "internalType": "uint8",
          "name": "newLevel",
          "type": "uint8"
        },
        {
          "internalType": "string",
          "name": "proof1",
          "type": "string"
        },
        {
          "internalType": "string",
          "name": "",
          "type": "string"
        }
      ],
      "name": "daoDowngradeTrustLevel",
      "outputs": [],
      "stateMutability": "nonpayable",
      "type": "function"
    },
    {
      "inputs": [
        {
          "internalType": "bytes32",
          "name": "",
          "type": "bytes32"
        }
      ],
      "name": "daoPunishmentBan",
      "outputs": [
        {
          "internalType": "bool",
          "name": "",
          "type": "bool"
        }
      ],
      "stateMutability": "view",
      "type": "function"
    },
    {
      "inputs": [
        {
          "internalType": "string",
          "name": "name",
          "type": "string"
        },
        {
          "internalType": "string",
          "name": "symbol",
          "type": "string"
        }
      ],
      "name": "daoQuarantine",
      "outputs": [],
      "stateMutability": "nonpayable",
      "type": "function"
    },
    {
      "inputs": [
        {
          "internalType": "address",
          "name": "token",
          "type": "address"
        },
        {
          "internalType": "uint8",
          "name": "newLevel",
          "type": "uint8"
        },
        {
          "internalType": "string",
          "name": "proof1",
          "type": "string"
        },
        {
          "internalType": "string",
          "name": "proof2",
          "type": "string"
        }
      ],
      "name": "daoUpgradeTrustLevel",
      "outputs": [],
      "stateMutability": "nonpayable",
      "type": "function"
    },
    {
      "inputs": [],
      "name": "defaultCooldown",
      "outputs": [
        {
          "internalType": "uint256",
          "name": "",
          "type": "uint256"
        }
      ],
      "stateMutability": "view",
      "type": "function"
    },
    {
      "inputs": [],
      "name": "defaultMaxBurst",
      "outputs": [
        {
          "internalType": "uint256",
          "name": "",
          "type": "uint256"
        }
      ],
      "stateMutability": "view",
      "type": "function"
    },
    {
      "inputs": [
        {
          "internalType": "bytes32",
          "name": "",
          "type": "bytes32"
        }
      ],
      "name": "fingerprintExists",
      "outputs": [
        {
          "internalType": "bool",
          "name": "",
          "type": "bool"
        }
      ],
      "stateMutability": "view",
      "type": "function"
    },
    {
      "inputs": [
        {
          "internalType": "uint256",
          "name": "index",
          "type": "uint256"
        }
      ],
      "name": "getDAOBannedToken",
      "outputs": [
        {
          "internalType": "string",
          "name": "name",
          "type": "string"
        },
        {
          "internalType": "string",
          "name": "symbol",
          "type": "string"
        },
        {
          "internalType": "address",
          "name": "tokenAddress",
          "type": "address"
        },
        {
          "internalType": "address",
          "name": "registeredBy",
          "type": "address"
        },
        {
          "internalType": "uint256",
          "name": "timestamp",
          "type": "uint256"
        }
      ],
      "stateMutability": "view",
      "type": "function"
    },
    {
      "inputs": [
        {
          "internalType": "address",
          "name": "token",
          "type": "address"
        }
      ],
      "name": "getProofLinks",
      "outputs": [
        {
          "internalType": "string",
          "name": "proof1",
          "type": "string"
        },
        {
          "internalType": "string",
          "name": "proof2",
          "type": "string"
        }
      ],
      "stateMutability": "view",
      "type": "function"
    },
    {
      "inputs": [
        {
          "internalType": "uint256",
          "name": "index",
          "type": "uint256"
        }
      ],
      "name": "getQuarantinedToken",
      "outputs": [
        {
          "internalType": "string",
          "name": "name",
          "type": "string"
        },
        {
          "internalType": "string",
          "name": "symbol",
          "type": "string"
        },
        {
          "internalType": "address",
          "name": "tokenAddress",
          "type": "address"
        },
        {
          "internalType": "address",
          "name": "registeredBy",
          "type": "address"
        },
        {
          "internalType": "uint256",
          "name": "timestamp",
          "type": "uint256"
        }
      ],
      "stateMutability": "view",
      "type": "function"
    },
    {
      "inputs": [
        {
          "internalType": "string",
          "name": "name",
          "type": "string"
        },
        {
          "internalType": "string",
          "name": "symbol",
          "type": "string"
        }
      ],
      "name": "getRegisteredToken",
      "outputs": [
        {
          "internalType": "string",
          "name": "",
          "type": "string"
        },
        {
          "internalType": "string",
          "name": "",
          "type": "string"
        },
        {
          "internalType": "address",
          "name": "",
          "type": "address"
        },
        {
          "internalType": "address",
          "name": "",
          "type": "address"
        },
        {
          "internalType": "uint256",
          "name": "",
          "type": "uint256"
        },
        {
          "internalType": "uint8",
          "name": "",
          "type": "uint8"
        },
        {
          "internalType": "bool",
          "name": "",
          "type": "bool"
        }
      ],
      "stateMutability": "view",
      "type": "function"
    },
    {
      "inputs": [
        {
          "internalType": "address",
          "name": "token",
          "type": "address"
        }
      ],
      "name": "getTokenBadgeMetadata",
      "outputs": [
        {
          "components": [
            {
              "internalType": "string",
              "name": "name",
              "type": "string"
            },
            {
              "internalType": "string",
              "name": "symbol",
              "type": "string"
            },
            {
              "internalType": "uint8",
              "name": "trustLevel",
              "type": "uint8"
            },
            {
              "internalType": "string",
              "name": "levelName",
              "type": "string"
            },
            {
              "internalType": "string",
              "name": "levelColor",
              "type": "string"
            },
            {
              "internalType": "uint256",
              "name": "timestamp",
              "type": "uint256"
            }
          ],
          "internalType": "struct TokenRegistry.BadgeMetadata",
          "name": "",
          "type": "tuple"
        }
      ],
      "stateMutability": "view",
      "type": "function"
    },
    {
      "inputs": [
        {
          "internalType": "address",
          "name": "tokenAddress",
          "type": "address"
        }
      ],
      "name": "getTokenInfo",
      "outputs": [
        {
          "internalType": "string",
          "name": "name",
          "type": "string"
        },
        {
          "internalType": "string",
          "name": "symbol",
          "type": "string"
        },
        {
          "internalType": "address",
          "name": "tokenAddr",
          "type": "address"
        },
        {
          "internalType": "address",
          "name": "creator",
          "type": "address"
        },
        {
          "internalType": "uint256",
          "name": "timestamp",
          "type": "uint256"
        },
        {
          "internalType": "string",
          "name": "proof1",
          "type": "string"
        },
        {
          "internalType": "string",
          "name": "proof2",
          "type": "string"
        },
        {
          "internalType": "uint8",
          "name": "trustLevel",
          "type": "uint8"
        },
        {
          "internalType": "bool",
          "name": "isRegistered",
          "type": "bool"
        },
        {
          "internalType": "bool",
          "name": "upgradeRequested",
          "type": "bool"
        }
      ],
      "stateMutability": "view",
      "type": "function"
    },
    {
      "inputs": [],
      "name": "getTokenLogbook",
      "outputs": [
        {
          "components": [
            {
              "internalType": "string",
              "name": "name",
              "type": "string"
            },
            {
              "internalType": "string",
              "name": "symbol",
              "type": "string"
            },
            {
              "internalType": "address",
              "name": "tokenAddress",
              "type": "address"
            },
            {
              "internalType": "address",
              "name": "registeredBy",
              "type": "address"
            },
            {
              "internalType": "uint256",
              "name": "timestamp",
              "type": "uint256"
            },
            {
              "internalType": "string",
              "name": "proof1",
              "type": "string"
            },
            {
              "internalType": "string",
              "name": "proof2",
              "type": "string"
            },
            {
              "internalType": "uint8",
              "name": "trustLevel",
              "type": "uint8"
            },
            {
              "internalType": "bool",
              "name": "isRegistered",
              "type": "bool"
            },
            {
              "internalType": "bool",
              "name": "upgradeRequested",
              "type": "bool"
            }
          ],
          "internalType": "struct TokenRegistry.TokenInfo[]",
          "name": "",
          "type": "tuple[]"
        }
      ],
      "stateMutability": "view",
      "type": "function"
    },
    {
      "inputs": [],
      "name": "getTotalDAOBanned",
      "outputs": [
        {
          "internalType": "uint256",
          "name": "",
          "type": "uint256"
        }
      ],
      "stateMutability": "view",
      "type": "function"
    },
    {
      "inputs": [],
      "name": "getTotalQuarantined",
      "outputs": [
        {
          "internalType": "uint256",
          "name": "",
          "type": "uint256"
        }
      ],
      "stateMutability": "view",
      "type": "function"
    },
    {
      "inputs": [
        {
          "internalType": "address",
          "name": "token",
          "type": "address"
        }
      ],
      "name": "getTrustDetails",
      "outputs": [
        {
          "internalType": "string",
          "name": "name",
          "type": "string"
        },
        {
          "internalType": "string",
          "name": "symbol",
          "type": "string"
        },
        {
          "internalType": "uint8",
          "name": "trustLevel",
          "type": "uint8"
        },
        {
          "internalType": "string",
          "name": "levelName",
          "type": "string"
        },
        {
          "internalType": "string",
          "name": "levelColor",
          "type": "string"
        }
      ],
      "stateMutability": "view",
      "type": "function"
    },
    {
      "inputs": [
        {
          "internalType": "address",
          "name": "token",
          "type": "address"
        }
      ],
      "name": "getTrustLevel",
      "outputs": [
        {
          "internalType": "uint8",
          "name": "",
          "type": "uint8"
        }
      ],
      "stateMutability": "view",
      "type": "function"
    },
    {
      "inputs": [
        {
          "internalType": "bytes32",
          "name": "",
          "type": "bytes32"
        }
      ],
      "name": "globalBanList",
      "outputs": [
        {
          "internalType": "bool",
          "name": "",
          "type": "bool"
        }
      ],
      "stateMutability": "view",
      "type": "function"
    },
    {
      "inputs": [
        {
          "internalType": "string",
          "name": "name",
          "type": "string"
        },
        {
          "internalType": "string",
          "name": "symbol",
          "type": "string"
        }
      ],
      "name": "isDAOPunished",
      "outputs": [
        {
          "internalType": "bool",
          "name": "",
          "type": "bool"
        }
      ],
      "stateMutability": "view",
      "type": "function"
    },
    {
      "inputs": [
        {
          "internalType": "string",
          "name": "name",
          "type": "string"
        },
        {
          "internalType": "string",
          "name": "symbol",
          "type": "string"
        }
      ],
      "name": "isGloballyBanned",
      "outputs": [
        {
          "internalType": "bool",
          "name": "",
          "type": "bool"
        }
      ],
      "stateMutability": "view",
      "type": "function"
    },
    {
      "inputs": [
        {
          "internalType": "string",
          "name": "name",
          "type": "string"
        },
        {
          "internalType": "string",
          "name": "symbol",
          "type": "string"
        }
      ],
      "name": "isInSuspicionList",
      "outputs": [
        {
          "internalType": "bool",
          "name": "",
          "type": "bool"
        }
      ],
      "stateMutability": "view",
      "type": "function"
    },
    {
      "inputs": [],
      "name": "isPaused",
      "outputs": [
        {
          "internalType": "bool",
          "name": "",
          "type": "bool"
        }
      ],
      "stateMutability": "view",
      "type": "function"
    },
    {
      "inputs": [
        {
          "internalType": "string",
          "name": "name",
          "type": "string"
        },
        {
          "internalType": "string",
          "name": "symbol",
          "type": "string"
        }
      ],
      "name": "isQuarantined",
      "outputs": [
        {
          "internalType": "bool",
          "name": "",
          "type": "bool"
        }
      ],
      "stateMutability": "view",
      "type": "function"
    },
    {
      "inputs": [
        {
          "internalType": "address",
          "name": "",
          "type": "address"
        }
      ],
      "name": "lastSubmissionTimestamp",
      "outputs": [
        {
          "internalType": "uint256",
          "name": "",
          "type": "uint256"
        }
      ],
      "stateMutability": "view",
      "type": "function"
    },
    {
      "inputs": [],
      "name": "minTPNFee",
      "outputs": [
        {
          "internalType": "uint256",
          "name": "",
          "type": "uint256"
        }
      ],
      "stateMutability": "view",
      "type": "function"
    },
    {
      "inputs": [
        {
          "internalType": "address",
          "name": "tokenAddress",
          "type": "address"
        }
      ],
      "name": "mintBadgeFor",
      "outputs": [],
      "stateMutability": "nonpayable",
      "type": "function"
    },
    {
      "inputs": [
        {
          "internalType": "bytes32",
          "name": "",
          "type": "bytes32"
        }
      ],
      "name": "nameSymbolToAddress",
      "outputs": [
        {
          "internalType": "address",
          "name": "",
          "type": "address"
        }
      ],
      "stateMutability": "view",
      "type": "function"
    },
    {
      "inputs": [],
      "name": "owner",
      "outputs": [
        {
          "internalType": "address",
          "name": "",
          "type": "address"
        }
      ],
      "stateMutability": "view",
      "type": "function"
    },
    {
      "inputs": [],
      "name": "pauseRegistry",
      "outputs": [],
      "stateMutability": "nonpayable",
      "type": "function"
    },
    {
      "inputs": [],
      "name": "paused",
      "outputs": [
        {
          "internalType": "bool",
          "name": "",
          "type": "bool"
        }
      ],
      "stateMutability": "view",
      "type": "function"
    },
    {
      "inputs": [
        {
          "internalType": "bytes32",
          "name": "",
          "type": "bytes32"
        }
      ],
      "name": "quarantineList",
      "outputs": [
        {
          "internalType": "bool",
          "name": "",
          "type": "bool"
        }
      ],
      "stateMutability": "view",
      "type": "function"
    },
    {
      "inputs": [
        {
          "internalType": "uint256",
          "name": "",
          "type": "uint256"
        }
      ],
      "name": "quarantineLogbook",
      "outputs": [
        {
          "internalType": "string",
          "name": "name",
          "type": "string"
        },
        {
          "internalType": "string",
          "name": "symbol",
          "type": "string"
        },
        {
          "internalType": "address",
          "name": "tokenAddress",
          "type": "address"
        },
        {
          "internalType": "address",
          "name": "registeredBy",
          "type": "address"
        },
        {
          "internalType": "uint256",
          "name": "timestamp",
          "type": "uint256"
        }
      ],
      "stateMutability": "view",
      "type": "function"
    },
    {
      "inputs": [
        {
          "internalType": "string",
          "name": "name",
          "type": "string"
        },
        {
          "internalType": "string",
          "name": "symbol",
          "type": "string"
        },
        {
          "internalType": "address",
          "name": "tokenAddress",
          "type": "address"
        },
        {
          "internalType": "string",
          "name": "proof1",
          "type": "string"
        },
        {
          "internalType": "string",
          "name": "proof2",
          "type": "string"
        }
      ],
      "name": "registerToken",
      "outputs": [],
      "stateMutability": "nonpayable",
      "type": "function"
    },
    {
      "inputs": [
        {
          "internalType": "address",
          "name": "",
          "type": "address"
        }
      ],
      "name": "registeredTokens",
      "outputs": [
        {
          "internalType": "string",
          "name": "name",
          "type": "string"
        },
        {
          "internalType": "string",
          "name": "symbol",
          "type": "string"
        },
        {
          "internalType": "address",
          "name": "tokenAddress",
          "type": "address"
        },
        {
          "internalType": "address",
          "name": "registeredBy",
          "type": "address"
        },
        {
          "internalType": "uint256",
          "name": "timestamp",
          "type": "uint256"
        },
        {
          "internalType": "string",
          "name": "proof1",
          "type": "string"
        },
        {
          "internalType": "string",
          "name": "proof2",
          "type": "string"
        },
        {
          "internalType": "uint8",
          "name": "trustLevel",
          "type": "uint8"
        },
        {
          "internalType": "bool",
          "name": "isRegistered",
          "type": "bool"
        },
        {
          "internalType": "bool",
          "name": "upgradeRequested",
          "type": "bool"
        }
      ],
      "stateMutability": "view",
      "type": "function"
    },
    {
      "inputs": [
        {
          "internalType": "string",
          "name": "domain",
          "type": "string"
        }
      ],
      "name": "removeTrustedAuditor",
      "outputs": [],
      "stateMutability": "nonpayable",
      "type": "function"
    },
    {
      "inputs": [
        {
          "internalType": "string",
          "name": "domain",
          "type": "string"
        }
      ],
      "name": "removeTrustedExchange",
      "outputs": [],
      "stateMutability": "nonpayable",
      "type": "function"
    },
    {
      "inputs": [],
      "name": "renounceOwnership",
      "outputs": [],
      "stateMutability": "nonpayable",
      "type": "function"
    },
    {
      "inputs": [
        {
          "internalType": "string",
          "name": "input",
          "type": "string"
        }
      ],
      "name": "sanitize",
      "outputs": [
        {
          "internalType": "string",
          "name": "",
          "type": "string"
        }
      ],
      "stateMutability": "pure",
      "type": "function"
    },
    {
      "inputs": [
        {
          "internalType": "address[]",
          "name": "all",
          "type": "address[]"
        }
      ],
      "name": "selfHeal",
      "outputs": [],
      "stateMutability": "nonpayable",
      "type": "function"
    },
    {
      "inputs": [
        {
          "internalType": "address",
          "name": "newDAO",
          "type": "address"
        }
      ],
      "name": "setDAO",
      "outputs": [],
      "stateMutability": "nonpayable",
      "type": "function"
    },
    {
      "inputs": [
        {
          "internalType": "address",
          "name": "",
          "type": "address"
        }
      ],
      "name": "submissionBurstCount",
      "outputs": [
        {
          "internalType": "uint256",
          "name": "",
          "type": "uint256"
        }
      ],
      "stateMutability": "view",
      "type": "function"
    },
    {
      "inputs": [
        {
          "internalType": "bytes32",
          "name": "",
          "type": "bytes32"
        }
      ],
      "name": "suspicionList",
      "outputs": [
        {
          "internalType": "bool",
          "name": "",
          "type": "bool"
        }
      ],
      "stateMutability": "view",
      "type": "function"
    },
    {
      "inputs": [
        {
          "internalType": "uint256",
          "name": "",
          "type": "uint256"
        }
      ],
      "name": "tokenLogbook",
      "outputs": [
        {
          "internalType": "string",
          "name": "name",
          "type": "string"
        },
        {
          "internalType": "string",
          "name": "symbol",
          "type": "string"
        },
        {
          "internalType": "address",
          "name": "tokenAddress",
          "type": "address"
        },
        {
          "internalType": "address",
          "name": "registeredBy",
          "type": "address"
        },
        {
          "internalType": "uint256",
          "name": "timestamp",
          "type": "uint256"
        },
        {
          "internalType": "string",
          "name": "proof1",
          "type": "string"
        },
        {
          "internalType": "string",
          "name": "proof2",
          "type": "string"
        },
        {
          "internalType": "uint8",
          "name": "trustLevel",
          "type": "uint8"
        },
        {
          "internalType": "bool",
          "name": "isRegistered",
          "type": "bool"
        },
        {
          "internalType": "bool",
          "name": "upgradeRequested",
          "type": "bool"
        }
      ],
      "stateMutability": "view",
      "type": "function"
    },
    {
      "inputs": [],
      "name": "tpnTokenAddress",
      "outputs": [
        {
          "internalType": "address",
          "name": "",
          "type": "address"
        }
      ],
      "stateMutability": "view",
      "type": "function"
    },
    {
      "inputs": [
        {
          "internalType": "address",
          "name": "newOwner",
          "type": "address"
        }
      ],
      "name": "transferOwnership",
      "outputs": [],
      "stateMutability": "nonpayable",
      "type": "function"
    },
    {
      "inputs": [],
      "name": "unpauseRegistry",
      "outputs": [],
      "stateMutability": "nonpayable",
      "type": "function"
    },
    {
      "inputs": [
        {
          "internalType": "string",
          "name": "name",
          "type": "string"
        },
        {
          "internalType": "string",
          "name": "symbol",
          "type": "string"
        }
      ],
      "name": "unquarantineToken",
      "outputs": [],
      "stateMutability": "nonpayable",
      "type": "function"
    },
    {
      "inputs": [
        {
          "internalType": "uint256",
          "name": "newFee",
          "type": "uint256"
        }
      ],
      "name": "updateMinFee",
      "outputs": [],
      "stateMutability": "nonpayable",
      "type": "function"
    },
    {
      "inputs": [
        {
          "internalType": "bytes32",
          "name": "",
          "type": "bytes32"
        }
      ],
      "name": "usedFingerprints",
      "outputs": [
        {
          "internalType": "bool",
          "name": "",
          "type": "bool"
        }
      ],
      "stateMutability": "view",
      "type": "function"
    }
  ],
  "bytecode": "0x6080346200020a57601f620046c338819003918201601f191683019291906001600160401b038411838510176200020f5781606092849260409687528339810103126200020a57620000518162000225565b906200006d83620000656020840162000225565b920162000225565b9062000079336200023a565b600180805568056bc75e2d631000006005556012601955603c601a55926001600160a01b03908116918215620001c65716908115620001825790620000d9929160018060a01b03199081600254161760025560035416176003556200023a565b602b82516a62696e616e63652e636f6d60a81b8152600c600b820152209060ff19918183825416179055602c83516b636f696e626173652e636f6d60a01b8152600c80820152208183825416179055602a83516963657274696b2e636f6d60b01b8152600d600a820152208183825416179055602f83516e747261696c6f66626974732e636f6d60881b8152600d600f8201522091825416179055516144419081620002828239f35b845162461bcd60e51b815260206004820152601860248201527f496e76616c69642042616467654e4654206164647265737300000000000000006044820152606490fd5b855162461bcd60e51b815260206004820152601360248201527f496e76616c69642054504e2061646472657373000000000000000000000000006044820152606490fd5b600080fd5b634e487b7160e01b600052604160045260246000fd5b51906001600160a01b03821682036200020a57565b600080546001600160a01b039283166001600160a01b03198216811783559216907f8be0079c531659141344cd1fd0a4f28419497f9722a3daafe3b4186f6b6457e09080a356fe6080604052600436101561001257600080fd5b60003560e01c806266af67146103f0578062e884a6146103eb57806305eb43c9146103e657806311acf459146103e157806315262c2a146103dc5780631726689d146103d757806317f7ad17146103d25780631c82732d146103cd5780631d0629cc146103c85780631f16e199146103c35780631f69565f146103be57806322b6434f146103b957806332198c74146103b4578063324379a9146103af5780633644956d146103aa57806336b41313146103a55780633711bb6e146103a057806338bcba911461039b578063395a83a6146103965780633a75adf3146103915780634162169f1461038c57806343135ead146103875780634867ef4f146103825780634d3141951461037d5780634ef89d8914610378578063545559e71461037357806358e2b1641461036e5780635a6f0b11146103695780635c975abb146103005780635ceae494146103645780635ea78df01461035f57806364ab9b2a1461035a5780636a4b783d146103555780636e1c3f9a14610350578063715018a61461034b578063743b77721461034657806374b49eba146103415780637ff6f8821461033c57806382daa41914610337578063896d2124146103325780638a6c9e221461032d5780638c0bd916146103285780638da5cb5b146103235780639046a9ac1461031e578063946d6aeb14610319578063981b73b914610314578063a205dcc61461030f578063a7f47e1c1461030a578063aca9390414610305578063b187bd2614610300578063b54e7a4a146102fb578063b6b4ace4146102f6578063ba0a6b2e146102f1578063bf16d08d146102ec578063cd1ff4fb146102e7578063ced61b72146102e2578063dd33e4dc146102dd578063e2380113146102d8578063e73a914c146102d3578063f2fde38b146102ce578063fe17a6b4146102c95763fe52e484146102c457600080fd5b6124f6565b6123fb565b612392565b6122df565b6122d1565b612297565b612046565b611ffb565b611f11565b611e86565b611d34565b611c87565b6113f2565b611c79565b611c64565b611b98565b611b0c565b611a7e565b611a06565b6119c6565b611929565b611908565b6118ea565b6118cc565b6116c6565b611636565b611608565b6115ad565b611522565b6114e2565b6114c4565b6114a6565b611415565b6112ea565b6112bc565b61127c565b61126b565b61124a565b6111a1565b611167565b61113e565b611115565b6110ea565b6110bf565b611038565b610ffe565b610fe0565b610fa6565b610f3e565b610ea6565b610e00565b610d4f565b610d21565b610cd3565b610c79565b610c16565b610950565b610859565b610793565b610476565b610405565b600091031261040057565b600080fd5b34610400576000366003190112610400576003546040516001600160a01b039091168152602090f35b60005b8381106104415750506000910152565b8181015183820152602001610431565b9060209161046a8151809281855285808601910161042e565b601f01601f1916010190565b34610400576000806003193601126106035760155461049481611a67565b906040926104a484519384610685565b8183526015815260209283810192827f55f448fdea98c4d29eb340757ef0a66cd03dbb9538908a6a81d96026b71ec475855b8383106105de57505050508451938085019181865251809252858501868360051b8701019493965b83881061050b5786860387f35b90919293948380600192603f198a82030186526105cd8951916105a46105916105506105408651610140808752860190610451565b8787015185820389870152610451565b858a01516001600160a01b0316848b01526060868101516001600160a01b0316908501526080808701519085015260a0808701519085830390860152610451565b60c0808601519084830390850152610451565b60e08085015160ff16908301529261010081810151151590830152610120908101511515910152565b9701930197019690939291936104fe565b6008886001926105f1859b98999b6125d1565b815201920192019190969493966104d6565b80fd5b634e487b7160e01b600052604160045260246000fd5b6001600160401b03811161062f57604052565b610606565b604081019081106001600160401b0382111761062f57604052565b606081019081106001600160401b0382111761062f57604052565b608081019081106001600160401b0382111761062f57604052565b90601f801991011681019081106001600160401b0382111761062f57604052565b6040519060c082018281106001600160401b0382111761062f57604052565b6040519060a082018281106001600160401b0382111761062f57604052565b6040519061014082018281106001600160401b0382111761062f57604052565b6001600160401b03811161062f57601f01601f191660200190565b81601f820112156104005780359061073682610704565b926107446040519485610685565b8284526020838301011161040057816000926020809301838601378301015290565b602060031982011261040057600435906001600160401b038211610400576107909160040161071f565b90565b34610400576107be6107a436610766565b6107b960018060a01b03600454163314613851565b6111fe565b805460ff19169055005b600435906001600160a01b038216820361040057565b604435906001600160a01b038216820361040057565b35906001600160a01b038216820361040057565b9360ff61083761084b9461082961079099979560a08a5260a08a0190610451565b9088820360208a0152610451565b921660408601528482036060860152610451565b916080818403910152610451565b346104005760203660031901126104005761088261087d6108786107c8565b610f72565b6125d1565b610898610893610100830151151590565b61267a565b80516108de6020830151926108b160e082015160ff1690565b9060ff8216600381036108e25750506108c8612836565b6108d061286d565b915b60405195869586610808565b0390f35b600281036109025750506108f46127e6565b6108fc612813565b916108d2565b60010361093f5760c08101515115610925575061091d61279b565b6108fc61272d565b60a0015151156109375761091d612750565b61091d612706565b506109486126bd565b6108fc6126e3565b34610400576020366003190112610400576109696107c8565b610971613760565b61098060ff6006541615612a29565b61098c61087d82610f72565b9061099e610893610100840151151590565b60608201516109c0906001600160a01b03166001600160a01b031633146137f4565b60035460e0906109e6906109da906001600160a01b031681565b6001600160a01b031690565b9201805160ff1692803b156104005760405163aa131a6960e01b8152936000918591829084908290610a1c903360048401613834565b03925af1908115610a7f576000805160206143ec83398151915293610a4892610a66575b505160ff1690565b90610a5860405192839283613834565b0390a1610a6460018055565b005b80610a73610a799261061c565b806103f5565b38610a40565b6132b2565b60209060031901126104005760043590565b634e487b7160e01b600052603260045260246000fd5b601254811015610acb5760126000526005602060002091020190600090565b610a96565b601354811015610acb5760136000526005602060002091020190600090565b90600182811c92168015610b1f575b6020831014610b0957565b634e487b7160e01b600052602260045260246000fd5b91607f1691610afe565b9060405191826000825492610b3d84610aef565b908184526001948581169081600014610bac5750600114610b69575b5050610b6792500383610685565b565b9093915060005260209081600020936000915b818310610b94575050610b6793508201013880610b59565b85548884018501529485019487945091830191610b7c565b915050610b6794506020925060ff191682840152151560051b8201013880610b59565b91610bfb90610bed608095939897969860a0865260a0860190610451565b908482036020860152610451565b6001600160a01b039182166040840152951660608201520152565b3461040057610c2436610a84565b60125481101561040057610c3790610aac565b50610c4181610b29565b6108de610c5060018401610b29565b9260018060a01b0390600482600283015416926003830154169101549160405195869586610bcf565b3461040057610c8f610c8a36610a84565b610ad0565b506002810154600382015460048301546001600160a01b0392831693926108de9216610cc66001610cbf86610b29565b9501610b29565b9460405195869586610bcf565b346104005760008060031936011261060357610ced61255a565b600160ff1960065416176006557f24522f34b13b548fed0737e1873d20df9f4feee861f14eaf1a9ce643000cb8ae8180a180f35b3461040057610d2f36610a84565b600052600a602052602060018060a01b0360406000205416604051908152f35b34610400576107be610d6036610766565b610d7560018060a01b03600454163314613851565b611224565b989560ff95610120999c9b9894610db38c610ddc96610da5610dea9a97610140808552840190610451565b916020818403910152610451565b6001600160a01b0391821660408e0152931660608c015260808b015289820360a08b0152610451565b9087820360c0890152610451565b961660e085015215156101008401521515910152565b34610400576020366003190112610400576001600160a01b0380610e226107c8565b166000526008602052610e3860406000206125d1565b6108de81519160208101519360408201511690610e5e606082015160018060a01b031690565b608082015160a083015160c084015191610e7c60e086015160ff1690565b93610e99610120610e91610100890151151590565b970151151590565b966040519a8b9a8b610d7a565b3461040057610eb436610a84565b6007548110156104005760076000527fa66cc928b5edb82af9bd49922954155ab7b0942694bea4ce44661d9a8736c68801546040516001600160a01b039091168152602090f35b906040600319830112610400576001600160401b036004358181116104005783610f279160040161071f565b92602435918211610400576107909160040161071f565b3461040057610f55610f4f36610efb565b906129d3565b600052600e602052602060ff604060002054166040519015158152f35b6001600160a01b0316600090815260086020526040902090565b6001600160a01b0316600090815260186020526040902090565b34610400576020366003190112610400576001600160a01b03610fc76107c8565b1660005260176020526020604060002054604051908152f35b34610400576000366003190112610400576020600554604051908152f35b34610400576020366003190112610400576001600160a01b0361101f6107c8565b1660005260186020526020604060002054604051908152f35b34610400577fad1876bb331ec429b63ef248e6b6bfc3c55c9a67ce2b5cf975e514a83d804a1c61106736610efb565b9061107d60018060a01b03600454163314613851565b61108c60ff6006541615612a29565b61109682826129d3565b6000526011602052604060002060ff1981541690556110ba604051928392836119ef565b0390a1005b34610400576110cd36610a84565b600052600f602052602060ff604060002054166040519015158152f35b34610400576110f836610a84565b600052600b602052602060ff604060002054166040519015158152f35b34610400576000366003190112610400576002546040516001600160a01b039091168152602090f35b34610400576000366003190112610400576004546040516001600160a01b039091168152602090f35b34610400576020366003190112610400576001600160a01b036111886107c8565b1660005260166020526020604060002054604051908152f35b34610400577faf0b4cfce1d4ccd287e50e3f62fa38f40e5b62dece28eac7f48375a6c70a500360206111d236610a84565b6111da61255a565b80600555604051908152a1005b906111fa6020928281519485920161042e565b0190565b602061121791816040519382858094519384920161042e565b8101600d81520301902090565b602061123d91816040519382858094519384920161042e565b8101600c81520301902090565b3461040057602060ff61125f6107b936610766565b54166040519015158152f35b34610400576110cd610f4f36610efb565b34610400576112af61128d36610766565b6112a260018060a01b03600454163314613851565b6107b96003825111613cac565b805460ff19166001179055005b34610400576112cd610f4f36610efb565b6000526010602052602060ff604060002054166040519015158152f35b34610400576112f836610efb565b61130d60018060a01b03600454163314613851565b61131c60ff6006541615612a29565b61132681836129d3565b90600092828452600e60205261134360ff60408620541615613a39565b828452601160205260ff6040852054166113b15761139c61138f7f73cb3561ef77bcca525d202a0b737a3c019ac78322ca87f64e44bdeaa6e828bf946000526011602052604060002090565b805460ff19166001179055565b6113ab604051928392836119ef565b0390a180f35b60405162461bcd60e51b8152602060048201526019602482015278151bdad95b88185b1c9958591e481c5d585c985b9d1a5b9959603a1b6044820152606490fd5b3461040057600036600319011261040057602060ff600654166040519015158152f35b346104005761142b61142636610a84565b610aac565b506040519060a082018281106001600160401b0382111761062f5760405261145281610b29565b82526108de61146360018301610b29565b9283602082015260018060a01b03926004846002830154169485604085015260038301541691826060850152015491826080820152519360405195869586610bcf565b34610400576000366003190112610400576020601254604051908152f35b34610400576000366003190112610400576020601354604051908152f35b34610400576020366003190112610400576001600160a01b036115036107c8565b166000526008602052602060ff60076040600020015416604051908152f35b346104005760a0366003190112610400576001600160401b036004358181116104005761155390369060040161071f565b6024358281116104005761156b90369060040161071f565b6115736107de565b6064358481116104005761158b90369060040161071f565b91608435948511610400576115a7610a6495369060040161071f565b93612a6a565b3461040057600080600319360112610603576115c761255a565b80546001600160a01b03198116825581906001600160a01b03167f8be0079c531659141344cd1fd0a4f28419497f9722a3daafe3b4186f6b6457e08280a380f35b3461040057611619610f4f36610efb565b6000526011602052602060ff604060002054166040519015158152f35b346104005761164436610a84565b6000526009602052602060ff604060002054166040519015158152f35b906080600319830112610400576004356001600160a01b0381168103610400579160243560ff8116810361040057916001600160401b0360443581811161040057836116af9160040161071f565b92606435918211610400576107909160040161071f565b34610400576117f16116d736611661565b93909180939261170e60018060a01b036116f681600454163314613851565b61170560ff6006541615612a29565b85161515613a80565b61172a610893600761171f87610f72565b015460081c60ff1690565b61173384610f72565b9561179b61179661177d6117766117598b610f4f600161175283610b29565b9201610b29565b61178661178161177d61177684600052600e602052604060002090565b5460ff1690565b1590565b613a39565b6000526011602052604060002090565b613887565b600787019160036117b66117b0855460ff1690565b60ff1690565b6117d160ff8716916117ca81841415613abc565b8211613af4565b600281146118b6575b1461188d575b50509060ff1660ff19825416179055565b6003805461181d919061180e906109da906001600160a01b031681565b9401546001600160a01b031690565b92803b15610400578260009161184a958360405180988195829463aa131a6960e01b845260048401613834565b03925af1928315610a7f576000805160206143ec8339815191529361187a575b506110ba60405192839283613834565b80610a736118879261061c565b3861186a565b6118af916118a56118a06118aa936141bd565b613b86565b614256565b613bdd565b38806117e0565b6118c76118c2846141bd565b613b2f565b6117da565b34610400576000366003190112610400576020601954604051908152f35b34610400576000366003190112610400576020601a54604051908152f35b346104005761191636610a84565b60135481101561040057610c3790610ad0565b34610400576020366003190112610400576001600160a01b038061194b6107c8565b1660005260086020526040600020906108de61196683610b29565b9261197360018201610b29565b9083600282015416936003820154169460048201549161199560058201610b29565b60076119a360068401610b29565b9201549360405198899860ff8760101c169760ff808960081c169816968b610d7a565b34610400576000366003190112610400576000546040516001600160a01b039091168152602090f35b9091610da561079093604084526040840190610451565b34610400576020366003190112610400576001600160a01b03611a276107c8565b166000526008602052611a3d60406000206125d1565b611a4d610100820151151561267a565b60c060a0820151910151906108de604051928392836119ef565b6001600160401b03811161062f5760051b60200190565b3461040057602080600319360112610400576004356001600160401b038111610400573660238201121561040057806004013590611abb82611a67565b91611ac96040519384610685565b80835260248484019160051b8301019136831161040057602401905b828210611af557610a6484613d85565b848091611b01846107f4565b815201910190611ae5565b34610400576112af611b1d36610766565b611b3260018060a01b03600454163314613851565b610d756003825111613cac565b959192611b6f60ff94611b6160c098949b9a979b60e08b5260e08b0190610451565b9089820360208b0152610451565b6001600160a01b0391821660408901529816606087015260808601521660a08401521515910152565b3461040057611ba9610f4f36610efb565b6000908152600a60205260409020546001600160a01b03168015611c2e5761087d611bd391610f72565b80516020820151604083015190926108de916001600160a01b031660608201519091906001600160a01b0316608082015190611c21610100611c1960e086015160ff1690565b940151151590565b9360405197889788611b3f565b60405162461bcd60e51b815260206004820152600e60248201526d139bdd081c9959da5cdd195c995960921b6044820152606490fd5b3461040057602060ff61125f610d7536610766565b3461040057610f5536610a84565b34610400576108de611ca0611c9b36610766565b6128d3565b604051918291602083526020830190610451565b9080601f8301121561040057813590611ccc82611a67565b92611cda6040519485610685565b828452602092838086019160051b8301019280841161040057848301915b848310611d085750505050505090565b82356001600160401b038111610400578691611d298484809489010161071f565b815201920191611cf8565b3461040057604080600319360112610400576001600160401b039060043582811161040057611d67903690600401611cb4565b9160243590811161040057611d80903690600401611cb4565b91611d8961255a565b8051835103611e515760005b8151811015610a645780611dc1611daf611de69385613fe1565b51611dba8388613fe1565b51906129d3565b611ddb61177d61177683600052600e602052604060002090565b611deb575b506132be565b611d95565b61138f611e0291600052600e602052604060002090565b7fc291c6d4ab3f542643aa7f2293e43ee13bcabe58869c421e0759db720a6b3a69611e2d8285613fe1565b51611e388388613fe1565b5190611e488751928392836119ef565b0390a138611de0565b815162461bcd60e51b815260206004820152600e60248201526d092dce0eae840dad2e6dac2e8c6d60931b6044820152606490fd5b346104005761161936610a84565b6020815260c060a0611f08611eb4855184602087015260e0860190610451565b611ef4611ed3602088015192601f1993848983030160408a0152610451565b60ff6040890151166060880152606088015183888303016080890152610451565b906080870151908683030184870152610451565b93015191015290565b34610400576020366003190112610400576108de611f3e611f306107c8565b611f386140c8565b50610f72565b600781015460ff16806000198101611fb55750611f59612706565b611f6161272d565b905b611f9a600485015493611f8b6001611f796106a6565b97611f8381610b29565b895201610b29565b602087015260ff166040860152565b6060840152608083015260a082015260405191829182611e94565b60028103611fd45750611fc66127e6565b611fce612813565b90611f63565b600303611feb57611fe3612836565b611fce61286d565b611ff36126bd565b611fce6126e3565b34610400576000806003193601126106035761201561255a565b60ff19600654166006557f7168e90c6c64f4fea21cc28cd324f146181fadf9cfdecaf9a13f5a6c4d5e630f8180a180f35b34610400576060366003190112610400576001600160401b036004358181116104005761207790369060040161071f565b906024359081116104005761209090369060040161071f565b604435918215158303610400576004546001600160a01b0393906120b79085163314613851565b6120c660ff6006541615612a29565b6120d083836129d3565b6120ed61179661177d611776846000526011602052604060002090565b61210461138f82600052600f602052604060002090565b61211e61177d61177683600052600e602052604060002090565b61227a575b5061212e8383613ce9565b848116151580612266575b6121fb575b5061214557005b7f042ffb874034f1979113f697774657344de36c8b35ef916493292920439af4a1926121718383613ce9565b9081161515806121e7575b612191575b506110ba604051928392836119ef565b6121de816121bd60076121b26000805160206143ec83398151915295610f72565b01805460ff19169055565b604080516001600160a01b0390921682526000602083015290918291820190565b0390a138612181565b506121f6600761171f83610f72565b61217c565b8061225561221e600361221061226095610f72565b01546001600160a01b031690565b6122456122296106c5565b878152602081018990526001600160a01b039094166040850152565b6001600160a01b03166060830152565b4260808201526138e5565b3861213e565b50612275600761171f83610f72565b612139565b61138f61229191600052600e602052604060002090565b38612123565b34610400576020366003190112610400576001600160a01b036122b86107c8565b1660005260146020526020604060002054604051908152f35b34610400576112cd36610a84565b34610400576020366003190112610400576122f86107c8565b61230061255a565b6001600160a01b038116801561235f57600480546001600160a01b03191690911790556040516001600160a01b0390911681527f8aad84fcad50e723fa3bcf0fb32c5bea4c71078b77b9aedfa638f146f3a3f7b99080602081016110ba565b60405162461bcd60e51b815260206004820152600b60248201526a496e76616c69642044414f60a81b6044820152606490fd5b34610400576020366003190112610400576123ab6107c8565b6123b361255a565b600080546001600160a01b039283166001600160a01b03198216811783559192167f8be0079c531659141344cd1fd0a4f28419497f9722a3daafe3b4186f6b6457e08380a380f35b346104005761240936611661565b509161243c60018060a01b0361242481600454163314613851565b61243360ff6006541615612a29565b82161515613a80565b61244d610893600761171f84610f72565b6117f18261245a83610f72565b9461247f61179661177d6117766117596124738b610b29565b610f4f60018d01610b29565b600786019060026124946117b0845460ff1690565b6124af60ff8616916124a881841415613abc565b8210613c29565b146124c5575b509060ff1660ff19825416179055565b6124d190511515613c66565b386124b5565b601554811015610acb57601560005260206000209060031b0190600090565b346104005761250436610a84565b60155481101561040057612517906124d7565b5061252181610b29565b906108de61253160018301610b29565b60018060a01b039283600282015416936003820154169460048201549161199560058201610b29565b6000546001600160a01b0316330361256e57565b606460405162461bcd60e51b815260206004820152602060248201527f4f776e61626c653a2063616c6c6572206973206e6f7420746865206f776e65726044820152fd5b80546001600160a01b0319166001600160a01b03909216919091179055565b90610b6760ff60076125e16106e4565b946125eb81610b29565b86526125f960018201610b29565b602087015260028101546001600160a01b0316604087015260038101546001600160a01b031660608701526004810154608087015261263a60058201610b29565b60a087015261264b60068201610b29565b60c0870152015460ff8282161660e0860152600881901c8216151561010086015260101c161515610120840152565b1561268157565b60405162461bcd60e51b8152602060048201526014602482015273151bdad95b881b9bdd081c9959da5cdd195c995960621b6044820152606490fd5b604051906126ca82610634565b600a825269155b9d995c9a599a595960b21b6020830152565b604051906126f082610634565b600782526611a3232323232360c91b6020830152565b6040519061271382610634565b600b82526a10985cda58c8151c9d5cdd60aa1b6020830152565b6040519061273a82610634565b60078252660234646443730360cc1b6020830152565b6040519061275d8261064f565b6029825268414f2072657669657760b81b6040837f4c6576656c20313a2055706772616465206c6576656c203220756e646572204460208201520152565b604051906127a88261064f565b6029825268414f2072657669657760b81b6040837f4c6576656c20313a2055706772616465206c6576656c203320756e646572204460208201520152565b604051906127f382610634565b6011825270115e18da185b99d94815995c9a599a5959607a1b6020830152565b6040519061282082610634565b60078252660233030464630360cc1b6020830152565b6040519061284382610634565b601b82527a105d591a5d1959080988115e18da185b99d94815995c9a599a5959602a1b6020830152565b6040519061287a82610634565b60078252660233830303038360cc1b6020830152565b9061289a82610704565b6128a76040519182610685565b82815280926128b8601f1991610704565b0190602036910137565b908151811015610acb570160200190565b6128dd8151612890565b600091825b81518110156129cb5761290f6129096128fb83856128c2565b516001600160f81b03191690565b60f81c90565b9360ff85166041811015806129c0575b156129505750908161294860018094920196602060ff60f81b910160f81b1660001a91866128c2565b535b016128e2565b600192919550606181101590816129b4575b8115612994575b501561294a5761297c6128fb82856128c2565b9461298e8382019660001a91866128c2565b5361294a565b60308110159150816129a8575b5038612969565b603991501115386129a1565b607a8111159150612962565b50605a81111561291f565b505090815290565b6129df6129e5916128d3565b916128d3565b612a236020604051809382612a03818401978881519384920161042e565b8201612a178251809386808501910161042e565b01038084520182610685565b51902090565b15612a3057565b60405162461bcd60e51b8152602060048201526012602482015271149959da5cdd1c9e481a5cc81c185d5cd95960721b6044820152606490fd5b9391909293612a7e60ff6006541615612a29565b612a86613760565b612a8f816137b6565b80612fa1575b612a9e90612fb5565b612aa7816128d3565b94612ab1856128d3565b938251875114801590612f95575b612f5357604094612b11612b1d87518a81612ae7612ae16020830180946111e7565b876111e7565b0391612afb601f1993848101835282610685565b5190209a89519384916020830196339188612ffe565b03908101835282610685565b5190209160018060a01b0396612b5888612b51612b448c600052600a602052604060002090565b546001600160a01b031690565b1615613040565b612b7a612b7561177d611776876000526009602052604060002090565b61308b565b612b9c612b9761177d6117768c600052600e602052604060002090565b6130d2565b612bbe612bb961177d6117768c600052600f602052604060002090565b61311d565b612be0612bdb61177d6117768c6000526011602052604060002090565b61315e565b612c02612bfd61177d6117768c6000526010602052604060002090565b6131a6565b612c186004612c1088610f72565b0154156131f2565b3360009081526016602052604090205415612f4b57336000908152601660205260409020545b601954336000818152601760205260409020549192612c6791612c6090610f8c565b549261325c565b421015612f1957612c7c612c81928210613269565b613249565b612c8a33610f8c565b555b600254612ca3906109da906001600160a01b031681565b9460055495803b1561040057885163079cc67960e41b815233600482015260248101979097526000908790604490829084905af1948515610a7f577fa77e4ac828d30170eadd38ffbf6b38027ded1dc7a284e5037cfa98aed41d29e599612d4361138f612d6d93612eb99a612e8e9a612f06575b50336000908152601460205260409020612d3181546132be565b90556000526009602052604060002090565b8451612ef0575b8551612eda575b8251151580612ed0575b612d6490613380565b881615156133c7565b612d8f612d8a61177d6117768d600052600b602052604060002090565b613413565b82511592831593612ec5575b612e34907f8b8bd83eaab6ca18f840d6ce2d55aa2c913e4f9cd03248e404cbecd3fecd49e69495612dca6106e4565b848152602081018690526001600160a01b038b168c8201529133606084015242608084015260a083015260c0820152612e1d60e0820196612e0b8860019052565b60016101008401521515610120830152565b612e2f81612e2a8b610f72565b6135b6565b6136aa565b612e5187612e4c8c600052600a602052604060002090565b6125b2565b612e6861138f8b600052600b602052604060002090565b612e71876136fc565b612e848851928392894292339286610bcf565b0390a15160ff1690565b92519485526001600160a01b03909116602085015260ff909116604084015233929081906060820190565b0390a2610b6760018055565b845115159350612d9b565b5083511515612d5b565b612eeb612ee687614256565b613328565b612d51565b612f01612efc866141bd565b6132cd565b612d4a565b80610a73612f139261061c565b38612d17565b3360009081526017602052604090206001925042905514612c8c57612f46612f4033610f8c565b60019055565b612c8c565b601a54612c3e565b60405162461bcd60e51b815260206004820152601a602482015279098c2f2cae4627440a6c2dcd2e8d2f4cac840dad2e6dac2e8c6d60331b6044820152606490fd5b50855185511415612abf565b50612a9e612fae856137b6565b9050612a95565b15612fbc57565b60405162461bcd60e51b815260206004820152601a60248201527913185e595c8c0e8813db9b1e481054d0d25248185b1b1bddd95960321b6044820152606490fd5b9161302760206014959461301982958281519485920161042e565b01918281519485920161042e565b60609290921b6001600160601b03191691019081520190565b1561304757565b606460405162461bcd60e51b815260206004820152602060248201527f4c61796572323a2046696e6765727072696e7420616c726561647920757365646044820152fd5b1561309257565b60405162461bcd60e51b815260206004820152601860248201527713185e595c8c8e88119a5b99d95c9c1c9a5b9d081d5cd95960421b6044820152606490fd5b156130d957565b606460405162461bcd60e51b815260206004820152602060248201527f4c61796572333a20546f6b656e20697320676c6f62616c6c792062616e6e65646044820152fd5b1561312457565b60405162461bcd60e51b815260206004820152601260248201527113185e595c8d0e88111053c818985b9b995960721b6044820152606490fd5b1561316557565b60405162461bcd60e51b815260206004820152601960248201527813185e595c8d4e88151bdad95b881c5d585c985b9d1a5b9959603a1b6044820152606490fd5b156131ad57565b60405162461bcd60e51b815260206004820152601d60248201527f4c61796572363a20537573706963696f7573207375626d697373696f6e0000006044820152606490fd5b156131f957565b60405162461bcd60e51b8152602060048201526012602482015271105b1c9958591e481c9959da5cdd195c995960721b6044820152606490fd5b634e487b7160e01b600052601160045260246000fd5b906001820180921161325757565b613233565b9190820180921161325757565b1561327057565b60405162461bcd60e51b815260206004820152601a602482015279526174653a20546f6f206d616e79207375626d697373696f6e7360301b6044820152606490fd5b6040513d6000823e3d90fd5b60001981146132575760010190565b156132d457565b60405162461bcd60e51b815260206004820152602660248201527fe29d8c20496e76616c69642065786368616e676520766572696669636174696f6044820152656e206c696e6b60d01b6064820152608490fd5b1561332f57565b60405162461bcd60e51b815260206004820152602360248201527fe29d8c20496e76616c696420617564697420766572696669636174696f6e206c604482015262696e6b60e81b6064820152608490fd5b1561338757565b60405162461bcd60e51b815260206004820152601860248201527713985b5948185b99081cde5b589bdb081c995c5d5a5c995960421b6044820152606490fd5b156133ce57565b60405162461bcd60e51b815260206004820152601c60248201527f546f6b656e20616464726573732063616e6e6f74206265207a65726f000000006044820152606490fd5b1561341a57565b60405162461bcd60e51b815260206004820152602e60248201527f546f6b656e20776974682073616d652066696e6765727072696e7420616c726560448201526d18591e481c9959da5cdd195c995960921b6064820152608490fd5b634e487b7160e01b600052600060045260246000fd5b818110613497575050565b6000815560010161348c565b9190601f81116134b257505050565b610b67926000526020600020906020601f840160051c830193106134de575b601f0160051c019061348c565b90915081906134d1565b91909182516001600160401b03811161062f5761350f816135098454610aef565b846134a3565b602080601f831160011461354b575081929394600092613540575b50508160011b916000199060031b1c1916179055565b01519050388061352a565b90601f1983169561356185600052602060002090565b926000905b88821061359e57505083600195969710613585575b505050811b019055565b015160001960f88460031b161c1916905538808061357b565b80600185968294968601518155019501930190613566565b906136926101206007610b67946135ce8551826134e8565b6135df6020860151600183016134e8565b60408501516135fa906001600160a01b0316600283016125b2565b6060850151613615906001600160a01b0316600383016125b2565b6080850151600482015561363060a0860151600583016134e8565b61364160c0860151600683016134e8565b019261366461365460e083015160ff1690565b855460ff191660ff909116178555565b61368b613675610100830151151590565b855461ff00191690151560081b61ff0016178555565b0151151590565b815462ff0000191690151560101b62ff000016179055565b60155490600160401b82101561062f576001820180601555821015610acb576015600052610b679160031b7f55f448fdea98c4d29eb340757ef0a66cd03dbb9538908a6a81d96026b71ec475016135b6565b600754600160401b81101561062f576001810180600755811015610acb5760076000527fa66cc928b5edb82af9bd49922954155ab7b0942694bea4ce44661d9a8736c6880180546001600160a01b0319166001600160a01b03909216919091179055565b600260015414613771576002600155565b60405162461bcd60e51b815260206004820152601f60248201527f5265656e7472616e637947756172643a207265656e7472616e742063616c6c006044820152606490fd5b6000805b82518110156137ec57607f6137cf82856128c2565b5160f81c116137e6576137e1906132be565b6137ba565b50905090565b505050600190565b156137fb57565b60405162461bcd60e51b81526020600482015260116024820152702737ba103a37b5b2b71031b932b0ba37b960791b6044820152606490fd5b6001600160a01b03909116815260ff909116602082015260400190565b1561385857565b60405162461bcd60e51b81526020600482015260076024820152664e6f742044414f60c81b6044820152606490fd5b1561388e57565b60405162461bcd60e51b815260206004820152602960248201527f546f6b656e2069732071756172616e74696e6564202d20756e71756172616e746044820152681a5b9948199a5c9cdd60ba1b6064820152608490fd5b60135490600160401b82101561062f57613906600192838101601355610ad0565b929092613a3457815180516001600160401b03811161062f576139338161392d8754610aef565b876134a3565b6020918290601f83116001146139c05792826139789360809693600498966000926139b5575b5050600019600383901b1c191690831b1787555b8301519086016134e8565b6040810151613993906001600160a01b0316600286016125b2565b60608101516139ae906001600160a01b0316600386016125b2565b0151910155565b015190503880613959565b90601f198316916139d688600052602060002090565b9260005b818110613a1f5750938693600498969360809893836139789810613a06575b505050811b01875561396d565b015160001960f88460031b161c191690553880806139f9565b828401518555938701939286019286016139da565b613476565b15613a4057565b60405162461bcd60e51b8152602060048201526018602482015277151bdad95b881a5cc819db1bd8985b1b1e4818985b9b995960421b6044820152606490fd5b15613a8757565b60405162461bcd60e51b815260206004820152600d60248201526c24b73b30b634b2103a37b5b2b760991b6044820152606490fd5b15613ac357565b60405162461bcd60e51b81526020600482015260096024820152684e6f206368616e676560b81b6044820152606490fd5b15613afb57565b60405162461bcd60e51b815260206004820152600c60248201526b4d757374207570677261646560a01b6044820152606490fd5b15613b3657565b60405162461bcd60e51b815260206004820152602260248201527f496e76616c69642065786368616e67652070726f6f6620666f72204c6576656c604482015261101960f11b6064820152608490fd5b15613b8d57565b60405162461bcd60e51b815260206004820152602260248201527f4c6576656c2033206e656564732076616c69642065786368616e67652070726f60448201526137b360f11b6064820152608490fd5b15613be457565b60405162461bcd60e51b815260206004820152601f60248201527f4c6576656c2033206e656564732076616c69642061756469742070726f6f66006044820152606490fd5b15613c3057565b60405162461bcd60e51b815260206004820152600e60248201526d4d75737420646f776e677261646560901b6044820152606490fd5b15613c6d57565b60405162461bcd60e51b8152602060048201526017602482015276546f204c6576656c2032206e656564732070726f6f663160481b6044820152606490fd5b15613cb357565b60405162461bcd60e51b815260206004820152600e60248201526d24b73b30b634b2103237b6b0b4b760911b6044820152606490fd5b90613cf3916129d3565b600780549160005b838110613d0b5750505050600090565b6000838152602090208101546001600160a01b031660ff84613d2c83610f72565b015460081c1680613d53575b613d4b5750613d46906132be565b613cfb565b935050505090565b5082613d7f613d6183610f72565b610f4f613d796001613d7287610f72565b0192610b29565b91610b29565b14613d38565b90613d8e61255a565b60005b8251811015613fdc57613db4613da78285613fe1565b516001600160a01b031690565b600790613dc761177d8361171f84610f72565b613fd157613dd761087d82610f72565b92835192613deb60209485870151906129d3565b60809586015193966001600160a01b0394939192918589169160005b8b51811015613ea457613e1d613da7828e613fe1565b88811685148015613e8e575b613e8457613e3961087d82610f72565b9087613e4a83518d850151906129d3565b1480613e78575b613e66575b5050613e61906132be565b613e07565b908b0151909b509650613e6138613e56565b50888c83015110613e51565b50613e61906132be565b50613e9f61177d8761171f84610f72565b613e29565b50929695999397509793505060005b8251811015613f7a5780613ecd613da7613f149386613fe1565b613edd61177d8961171f84610f72565b611de057613eed61087d82610f72565b9081518a613f008a8501928351906129d3565b1480613f6c575b613f19575b5050506132be565b613eb3565b613f617f140895cf1e4d3065a52358255d13593961f3ae59458456b28a07624647ab63e793613f4f613f4a85610f72565b61403e565b51915191604051938493339285614086565b0390a1388080613f0c565b508c88168d83161415613f07565b5095935095613fae949250613f9c612b4484600052600a602052604060002090565b828216911603613fb3575b50506132be565b613d91565b612e4c613fca92600052600a602052604060002090565b3880613fa7565b5050613fae906132be565b509050565b8051821015610acb5760209160051b010190565b613fff8154610aef565b9081614009575050565b81601f6000931160011461401b575055565b90808391825261403a601f60208420940160051c84016001850161348c565b5555565b600760009161404c81613ff5565b61405860018201613ff5565b82600282015582600382015582600482015561407660058201613ff5565b61408260068201613ff5565b0155565b92906060926140a36140b192979697608087526080870190610451565b908582036020870152610451565b6001600160a01b0391821660408501529416910152565b6040519060c082018281106001600160401b0382111761062f57604052600060a0836060815260606020820152826040820152606080820152606060808201520152565b6040519061411982610634565b600b82526a62696e616e63652e636f6d60a81b6020830152565b6040519061414082610634565b600c82526b636f696e626173652e636f6d60a01b6020830152565b6040519061416882610634565b600a82526963657274696b2e636f6d60b01b6020830152565b6040519061418e82610634565b600f82526e747261696c6f66626974732e636f6d60881b6020830152565b906004811015610acb5760051b0190565b6040516141c98161066a565b6141d161410c565b81526141db614133565b60208201526141e861415b565b60408201526141f5614181565b606082015260005b6004811061420d57505050600090565b60ff61422261421c83856141ac565b51611224565b54168061423c575b6137ec57614237906132be565b6141fd565b5061425161424a82846141ac565b51846142e8565b61422a565b6040516142628161066a565b61426a61410c565b8152614274614133565b602082015261428161415b565b604082015261428e614181565b606082015260005b600481106142a657505050600090565b60ff6142bb6142b583856141ac565b516111fe565b5416806142d5575b6137ec576142d0906132be565b614296565b506142e361424a82846141ac565b6142c3565b8051918051809310159283614316575b508261430357505090565b60001992506143119161432e565b141590565b6002109250386142f8565b9190820391821161325757565b9080518251106143e3576000905b6143498351825190614321565b82116143da5760019260005b82518110156143d0576143746128fb61436e838761325c565b846128c2565b6143916143846128fb84876128c2565b6001600160f81b03191690565b6001600160f81b0319909116036143b0576143ab906132be565b614355565b5092509060005b6143ca576143c4906132be565b9061433c565b91505090565b50929190916143b7565b50505060001990565b50506000199056fed6cc28a396e758b7234f214eabdbc0d4a214c275a0aa769eb64ba41e617e7f8da26469706673582212207cf3d10f4600bbc06da6185ae285796263a2f060110eb99e9c8ffb12dbae115164736f6c63430008140033",
  "linkReferences": {},
  "deployedLinkReferences": {}
}